{
	"Voting.sol": {
		"Voting": {
			"abi": [
				{
					"inputs": [
						{
							"internalType": "string[]",
							"name": "proposalNames",
							"type": "string[]"
						}
					],
					"stateMutability": "nonpayable",
					"type": "constructor"
				},
				{
					"inputs": [],
					"name": "chairperson",
					"outputs": [
						{
							"internalType": "address",
							"name": "",
							"type": "address"
						}
					],
					"stateMutability": "view",
					"type": "function"
				},
				{
					"inputs": [
						{
							"internalType": "address",
							"name": "voter",
							"type": "address"
						}
					],
					"name": "giveRightToVote",
					"outputs": [],
					"stateMutability": "nonpayable",
					"type": "function"
				},
				{
					"inputs": [
						{
							"internalType": "uint256",
							"name": "",
							"type": "uint256"
						}
					],
					"name": "proposals",
					"outputs": [
						{
							"internalType": "string",
							"name": "name",
							"type": "string"
						},
						{
							"internalType": "uint256",
							"name": "voteCount",
							"type": "uint256"
						}
					],
					"stateMutability": "view",
					"type": "function"
				},
				{
					"inputs": [
						{
							"internalType": "uint256",
							"name": "proposalIndex",
							"type": "uint256"
						}
					],
					"name": "vote",
					"outputs": [],
					"stateMutability": "nonpayable",
					"type": "function"
				},
				{
					"inputs": [
						{
							"internalType": "address",
							"name": "",
							"type": "address"
						}
					],
					"name": "voters",
					"outputs": [
						{
							"internalType": "bool",
							"name": "authorized",
							"type": "bool"
						},
						{
							"internalType": "bool",
							"name": "voted",
							"type": "bool"
						},
						{
							"internalType": "uint256",
							"name": "vote",
							"type": "uint256"
						}
					],
					"stateMutability": "view",
					"type": "function"
				},
				{
					"inputs": [],
					"name": "winnerName",
					"outputs": [
						{
							"internalType": "string",
							"name": "",
							"type": "string"
						}
					],
					"stateMutability": "view",
					"type": "function"
				},
				{
					"inputs": [],
					"name": "winningProposal",
					"outputs": [
						{
							"internalType": "uint256",
							"name": "winningIndex",
							"type": "uint256"
						}
					],
					"stateMutability": "view",
					"type": "function"
				}
			],
			"devdoc": {
				"kind": "dev",
				"methods": {},
				"version": 1
			},
			"evm": {
				"assembly": "    /* \"Voting.sol\":60:1790  contract Voting {... */\n  mstore(0x40, 0x80)\n    /* \"Voting.sol\":375:659  constructor(string[] memory proposalNames) {... */\n  callvalue\n  dup1\n  iszero\n  tag_1\n  jumpi\n  revert(0x00, 0x00)\ntag_1:\n  pop\n  mload(0x40)\n  sub(codesize, bytecodeSize)\n  dup1\n  bytecodeSize\n  dup4\n  codecopy\n  dup2\n  dup2\n  add\n  0x40\n  mstore\n  dup2\n  add\n  swap1\n  tag_2\n  swap2\n  swap1\n  tag_3\n  jump\t// in\ntag_2:\n    /* \"Voting.sol\":443:453  msg.sender */\n  caller\n    /* \"Voting.sol\":429:440  chairperson */\n  0x00\n  0x00\n    /* \"Voting.sol\":429:453  chairperson = msg.sender */\n  0x0100\n  exp\n  dup2\n  sload\n  dup2\n  0xffffffffffffffffffffffffffffffffffffffff\n  mul\n  not\n  and\n  swap1\n  dup4\n  0xffffffffffffffffffffffffffffffffffffffff\n  and\n  mul\n  or\n  swap1\n  sstore\n  pop\n    /* \"Voting.sol\":469:475  uint i */\n  0x00\n    /* \"Voting.sol\":478:479  0 */\n  0x00\n    /* \"Voting.sol\":469:479  uint i = 0 */\n  swap1\n  pop\n    /* \"Voting.sol\":464:652  for (uint i = 0; i < proposalNames.length; i++) {... */\ntag_6:\n    /* \"Voting.sol\":485:498  proposalNames */\n  dup2\n    /* \"Voting.sol\":485:505  proposalNames.length */\n  mload\n    /* \"Voting.sol\":481:482  i */\n  dup2\n    /* \"Voting.sol\":481:505  i < proposalNames.length */\n  lt\n    /* \"Voting.sol\":464:652  for (uint i = 0; i < proposalNames.length; i++) {... */\n  iszero\n  tag_7\n  jumpi\n    /* \"Voting.sol\":527:536  proposals */\n  0x02\n    /* \"Voting.sol\":542:639  Proposal({... */\n  mload(0x40)\n  dup1\n  0x40\n  add\n  0x40\n  mstore\n  dup1\n    /* \"Voting.sol\":576:589  proposalNames */\n  dup5\n    /* \"Voting.sol\":590:591  i */\n  dup5\n    /* \"Voting.sol\":576:592  proposalNames[i] */\n  dup2\n  mload\n  dup2\n  lt\n  tag_9\n  jumpi\n  tag_10\n  tag_11\n  jump\t// in\ntag_10:\ntag_9:\n  0x20\n  mul\n  0x20\n  add\n  add\n  mload\n    /* \"Voting.sol\":542:639  Proposal({... */\n  dup2\n  mstore\n  0x20\n  add\n    /* \"Voting.sol\":622:623  0 */\n  0x00\n    /* \"Voting.sol\":542:639  Proposal({... */\n  dup2\n  mstore\n  pop\n    /* \"Voting.sol\":527:640  proposals.push(Proposal({... */\n  swap1\n  dup1\n  0x01\n  dup2\n  sload\n  add\n  dup1\n  dup3\n  sstore\n  dup1\n  swap2\n  pop\n  pop\n  0x01\n  swap1\n  sub\n  swap1\n  0x00\n  mstore\n  keccak256(0x00, 0x20)\n  swap1\n  0x02\n  mul\n  add\n  0x00\n  swap1\n  swap2\n  swap1\n  swap2\n  swap1\n  swap2\n  pop\n  0x00\n  dup3\n  add\n  mload\n  dup2\n  0x00\n  add\n  swap1\n  dup2\n  tag_13\n  swap2\n  swap1\n  tag_14\n  jump\t// in\ntag_13:\n  pop\n  0x20\n  dup3\n  add\n  mload\n  dup2\n  0x01\n  add\n  sstore\n  pop\n  pop\n    /* \"Voting.sol\":507:510  i++ */\n  dup1\n  dup1\n  0x01\n  add\n  swap2\n  pop\n  pop\n    /* \"Voting.sol\":464:652  for (uint i = 0; i < proposalNames.length; i++) {... */\n  jump(tag_6)\ntag_7:\n  pop\n    /* \"Voting.sol\":375:659  constructor(string[] memory proposalNames) {... */\n  pop\n    /* \"Voting.sol\":60:1790  contract Voting {... */\n  jump(tag_15)\n    /* \"#utility.yul\":7:82   */\ntag_16:\n    /* \"#utility.yul\":40:46   */\n  0x00\n    /* \"#utility.yul\":73:75   */\n  0x40\n    /* \"#utility.yul\":67:76   */\n  mload\n    /* \"#utility.yul\":57:76   */\n  swap1\n  pop\n    /* \"#utility.yul\":7:82   */\n  swap1\n  jump\t// out\n    /* \"#utility.yul\":88:205   */\ntag_17:\n    /* \"#utility.yul\":197:198   */\n  0x00\n    /* \"#utility.yul\":194:195   */\n  0x00\n    /* \"#utility.yul\":187:199   */\n  revert\n    /* \"#utility.yul\":211:328   */\ntag_18:\n    /* \"#utility.yul\":320:321   */\n  0x00\n    /* \"#utility.yul\":317:318   */\n  0x00\n    /* \"#utility.yul\":310:322   */\n  revert\n    /* \"#utility.yul\":334:451   */\ntag_19:\n    /* \"#utility.yul\":443:444   */\n  0x00\n    /* \"#utility.yul\":440:441   */\n  0x00\n    /* \"#utility.yul\":433:445   */\n  revert\n    /* \"#utility.yul\":457:559   */\ntag_20:\n    /* \"#utility.yul\":498:504   */\n  0x00\n    /* \"#utility.yul\":549:551   */\n  0x1f\n    /* \"#utility.yul\":545:552   */\n  not\n    /* \"#utility.yul\":540:542   */\n  0x1f\n    /* \"#utility.yul\":533:538   */\n  dup4\n    /* \"#utility.yul\":529:543   */\n  add\n    /* \"#utility.yul\":525:553   */\n  and\n    /* \"#utility.yul\":515:553   */\n  swap1\n  pop\n    /* \"#utility.yul\":457:559   */\n  swap2\n  swap1\n  pop\n  jump\t// out\n    /* \"#utility.yul\":565:745   */\ntag_21:\n    /* \"#utility.yul\":613:690   */\n  0x4e487b7100000000000000000000000000000000000000000000000000000000\n    /* \"#utility.yul\":610:611   */\n  0x00\n    /* \"#utility.yul\":603:691   */\n  mstore\n    /* \"#utility.yul\":710:714   */\n  0x41\n    /* \"#utility.yul\":707:708   */\n  0x04\n    /* \"#utility.yul\":700:715   */\n  mstore\n    /* \"#utility.yul\":734:738   */\n  0x24\n    /* \"#utility.yul\":731:732   */\n  0x00\n    /* \"#utility.yul\":724:739   */\n  revert\n    /* \"#utility.yul\":751:1032   */\ntag_22:\n    /* \"#utility.yul\":834:861   */\n  tag_60\n    /* \"#utility.yul\":856:860   */\n  dup3\n    /* \"#utility.yul\":834:861   */\n  tag_20\n  jump\t// in\ntag_60:\n    /* \"#utility.yul\":826:832   */\n  dup2\n    /* \"#utility.yul\":822:862   */\n  add\n    /* \"#utility.yul\":964:970   */\n  dup2\n    /* \"#utility.yul\":952:962   */\n  dup2\n    /* \"#utility.yul\":949:971   */\n  lt\n    /* \"#utility.yul\":928:946   */\n  0xffffffffffffffff\n    /* \"#utility.yul\":916:926   */\n  dup3\n    /* \"#utility.yul\":913:947   */\n  gt\n    /* \"#utility.yul\":910:972   */\n  or\n    /* \"#utility.yul\":907:995   */\n  iszero\n  tag_61\n  jumpi\n    /* \"#utility.yul\":975:993   */\n  tag_62\n  tag_21\n  jump\t// in\ntag_62:\n    /* \"#utility.yul\":907:995   */\ntag_61:\n    /* \"#utility.yul\":1015:1025   */\n  dup1\n    /* \"#utility.yul\":1011:1013   */\n  0x40\n    /* \"#utility.yul\":1004:1026   */\n  mstore\n    /* \"#utility.yul\":794:1032   */\n  pop\n    /* \"#utility.yul\":751:1032   */\n  pop\n  pop\n  jump\t// out\n    /* \"#utility.yul\":1038:1167   */\ntag_23:\n    /* \"#utility.yul\":1072:1078   */\n  0x00\n    /* \"#utility.yul\":1099:1119   */\n  tag_64\n  tag_16\n  jump\t// in\ntag_64:\n    /* \"#utility.yul\":1089:1119   */\n  swap1\n  pop\n    /* \"#utility.yul\":1128:1161   */\n  tag_65\n    /* \"#utility.yul\":1156:1160   */\n  dup3\n    /* \"#utility.yul\":1148:1154   */\n  dup3\n    /* \"#utility.yul\":1128:1161   */\n  tag_22\n  jump\t// in\ntag_65:\n    /* \"#utility.yul\":1038:1167   */\n  swap2\n  swap1\n  pop\n  jump\t// out\n    /* \"#utility.yul\":1173:1494   */\ntag_24:\n    /* \"#utility.yul\":1260:1264   */\n  0x00\n    /* \"#utility.yul\":1350:1368   */\n  0xffffffffffffffff\n    /* \"#utility.yul\":1342:1348   */\n  dup3\n    /* \"#utility.yul\":1339:1369   */\n  gt\n    /* \"#utility.yul\":1336:1392   */\n  iszero\n  tag_67\n  jumpi\n    /* \"#utility.yul\":1372:1390   */\n  tag_68\n  tag_21\n  jump\t// in\ntag_68:\n    /* \"#utility.yul\":1336:1392   */\ntag_67:\n    /* \"#utility.yul\":1422:1426   */\n  0x20\n    /* \"#utility.yul\":1414:1420   */\n  dup3\n    /* \"#utility.yul\":1410:1427   */\n  mul\n    /* \"#utility.yul\":1402:1427   */\n  swap1\n  pop\n    /* \"#utility.yul\":1482:1486   */\n  0x20\n    /* \"#utility.yul\":1476:1480   */\n  dup2\n    /* \"#utility.yul\":1472:1487   */\n  add\n    /* \"#utility.yul\":1464:1487   */\n  swap1\n  pop\n    /* \"#utility.yul\":1173:1494   */\n  swap2\n  swap1\n  pop\n  jump\t// out\n    /* \"#utility.yul\":1500:1617   */\ntag_25:\n    /* \"#utility.yul\":1609:1610   */\n  0x00\n    /* \"#utility.yul\":1606:1607   */\n  0x00\n    /* \"#utility.yul\":1599:1611   */\n  revert\n    /* \"#utility.yul\":1623:1740   */\ntag_26:\n    /* \"#utility.yul\":1732:1733   */\n  0x00\n    /* \"#utility.yul\":1729:1730   */\n  0x00\n    /* \"#utility.yul\":1722:1734   */\n  revert\n    /* \"#utility.yul\":1746:2054   */\ntag_27:\n    /* \"#utility.yul\":1808:1812   */\n  0x00\n    /* \"#utility.yul\":1898:1916   */\n  0xffffffffffffffff\n    /* \"#utility.yul\":1890:1896   */\n  dup3\n    /* \"#utility.yul\":1887:1917   */\n  gt\n    /* \"#utility.yul\":1884:1940   */\n  iszero\n  tag_72\n  jumpi\n    /* \"#utility.yul\":1920:1938   */\n  tag_73\n  tag_21\n  jump\t// in\ntag_73:\n    /* \"#utility.yul\":1884:1940   */\ntag_72:\n    /* \"#utility.yul\":1958:1987   */\n  tag_74\n    /* \"#utility.yul\":1980:1986   */\n  dup3\n    /* \"#utility.yul\":1958:1987   */\n  tag_20\n  jump\t// in\ntag_74:\n    /* \"#utility.yul\":1950:1987   */\n  swap1\n  pop\n    /* \"#utility.yul\":2042:2046   */\n  0x20\n    /* \"#utility.yul\":2036:2040   */\n  dup2\n    /* \"#utility.yul\":2032:2047   */\n  add\n    /* \"#utility.yul\":2024:2047   */\n  swap1\n  pop\n    /* \"#utility.yul\":1746:2054   */\n  swap2\n  swap1\n  pop\n  jump\t// out\n    /* \"#utility.yul\":2060:2199   */\ntag_28:\n    /* \"#utility.yul\":2149:2155   */\n  dup3\n    /* \"#utility.yul\":2144:2147   */\n  dup2\n    /* \"#utility.yul\":2139:2142   */\n  dup4\n    /* \"#utility.yul\":2133:2156   */\n  mcopy\n    /* \"#utility.yul\":2190:2191   */\n  0x00\n    /* \"#utility.yul\":2181:2187   */\n  dup4\n    /* \"#utility.yul\":2176:2179   */\n  dup4\n    /* \"#utility.yul\":2172:2188   */\n  add\n    /* \"#utility.yul\":2165:2192   */\n  mstore\n    /* \"#utility.yul\":2060:2199   */\n  pop\n  pop\n  pop\n  jump\t// out\n    /* \"#utility.yul\":2205:2639   */\ntag_29:\n    /* \"#utility.yul\":2294:2299   */\n  0x00\n    /* \"#utility.yul\":2319:2385   */\n  tag_77\n    /* \"#utility.yul\":2335:2384   */\n  tag_78\n    /* \"#utility.yul\":2377:2383   */\n  dup5\n    /* \"#utility.yul\":2335:2384   */\n  tag_27\n  jump\t// in\ntag_78:\n    /* \"#utility.yul\":2319:2385   */\n  tag_23\n  jump\t// in\ntag_77:\n    /* \"#utility.yul\":2310:2385   */\n  swap1\n  pop\n    /* \"#utility.yul\":2408:2414   */\n  dup3\n    /* \"#utility.yul\":2401:2406   */\n  dup2\n    /* \"#utility.yul\":2394:2415   */\n  mstore\n    /* \"#utility.yul\":2446:2450   */\n  0x20\n    /* \"#utility.yul\":2439:2444   */\n  dup2\n    /* \"#utility.yul\":2435:2451   */\n  add\n    /* \"#utility.yul\":2484:2487   */\n  dup5\n    /* \"#utility.yul\":2475:2481   */\n  dup5\n    /* \"#utility.yul\":2470:2473   */\n  dup5\n    /* \"#utility.yul\":2466:2482   */\n  add\n    /* \"#utility.yul\":2463:2488   */\n  gt\n    /* \"#utility.yul\":2460:2572   */\n  iszero\n  tag_79\n  jumpi\n    /* \"#utility.yul\":2491:2570   */\n  tag_80\n  tag_26\n  jump\t// in\ntag_80:\n    /* \"#utility.yul\":2460:2572   */\ntag_79:\n    /* \"#utility.yul\":2581:2633   */\n  tag_81\n    /* \"#utility.yul\":2626:2632   */\n  dup5\n    /* \"#utility.yul\":2621:2624   */\n  dup3\n    /* \"#utility.yul\":2616:2619   */\n  dup6\n    /* \"#utility.yul\":2581:2633   */\n  tag_28\n  jump\t// in\ntag_81:\n    /* \"#utility.yul\":2300:2639   */\n  pop\n    /* \"#utility.yul\":2205:2639   */\n  swap4\n  swap3\n  pop\n  pop\n  pop\n  jump\t// out\n    /* \"#utility.yul\":2659:3014   */\ntag_30:\n    /* \"#utility.yul\":2726:2731   */\n  0x00\n    /* \"#utility.yul\":2775:2778   */\n  dup3\n    /* \"#utility.yul\":2768:2772   */\n  0x1f\n    /* \"#utility.yul\":2760:2766   */\n  dup4\n    /* \"#utility.yul\":2756:2773   */\n  add\n    /* \"#utility.yul\":2752:2779   */\n  slt\n    /* \"#utility.yul\":2742:2864   */\n  tag_83\n  jumpi\n    /* \"#utility.yul\":2783:2862   */\n  tag_84\n  tag_19\n  jump\t// in\ntag_84:\n    /* \"#utility.yul\":2742:2864   */\ntag_83:\n    /* \"#utility.yul\":2893:2899   */\n  dup2\n    /* \"#utility.yul\":2887:2900   */\n  mload\n    /* \"#utility.yul\":2918:3008   */\n  tag_85\n    /* \"#utility.yul\":3004:3007   */\n  dup5\n    /* \"#utility.yul\":2996:3002   */\n  dup3\n    /* \"#utility.yul\":2989:2993   */\n  0x20\n    /* \"#utility.yul\":2981:2987   */\n  dup7\n    /* \"#utility.yul\":2977:2994   */\n  add\n    /* \"#utility.yul\":2918:3008   */\n  tag_29\n  jump\t// in\ntag_85:\n    /* \"#utility.yul\":2909:3008   */\n  swap2\n  pop\n    /* \"#utility.yul\":2732:3014   */\n  pop\n    /* \"#utility.yul\":2659:3014   */\n  swap3\n  swap2\n  pop\n  pop\n  jump\t// out\n    /* \"#utility.yul\":3036:3996   */\ntag_31:\n    /* \"#utility.yul\":3153:3158   */\n  0x00\n    /* \"#utility.yul\":3178:3269   */\n  tag_87\n    /* \"#utility.yul\":3194:3268   */\n  tag_88\n    /* \"#utility.yul\":3261:3267   */\n  dup5\n    /* \"#utility.yul\":3194:3268   */\n  tag_24\n  jump\t// in\ntag_88:\n    /* \"#utility.yul\":3178:3269   */\n  tag_23\n  jump\t// in\ntag_87:\n    /* \"#utility.yul\":3169:3269   */\n  swap1\n  pop\n    /* \"#utility.yul\":3289:3294   */\n  dup1\n    /* \"#utility.yul\":3318:3324   */\n  dup4\n    /* \"#utility.yul\":3311:3316   */\n  dup3\n    /* \"#utility.yul\":3304:3325   */\n  mstore\n    /* \"#utility.yul\":3352:3356   */\n  0x20\n    /* \"#utility.yul\":3345:3350   */\n  dup3\n    /* \"#utility.yul\":3341:3357   */\n  add\n    /* \"#utility.yul\":3334:3357   */\n  swap1\n  pop\n    /* \"#utility.yul\":3405:3409   */\n  0x20\n    /* \"#utility.yul\":3397:3403   */\n  dup5\n    /* \"#utility.yul\":3393:3410   */\n  mul\n    /* \"#utility.yul\":3385:3391   */\n  dup4\n    /* \"#utility.yul\":3381:3411   */\n  add\n    /* \"#utility.yul\":3434:3437   */\n  dup6\n    /* \"#utility.yul\":3426:3432   */\n  dup2\n    /* \"#utility.yul\":3423:3438   */\n  gt\n    /* \"#utility.yul\":3420:3542   */\n  iszero\n  tag_89\n  jumpi\n    /* \"#utility.yul\":3453:3532   */\n  tag_90\n  tag_25\n  jump\t// in\ntag_90:\n    /* \"#utility.yul\":3420:3542   */\ntag_89:\n    /* \"#utility.yul\":3568:3574   */\n  dup4\n    /* \"#utility.yul\":3551:3990   */\ntag_91:\n    /* \"#utility.yul\":3585:3591   */\n  dup2\n    /* \"#utility.yul\":3580:3583   */\n  dup2\n    /* \"#utility.yul\":3577:3592   */\n  lt\n    /* \"#utility.yul\":3551:3990   */\n  iszero\n  tag_93\n  jumpi\n    /* \"#utility.yul\":3667:3670   */\n  dup1\n    /* \"#utility.yul\":3661:3671   */\n  mload\n    /* \"#utility.yul\":3703:3721   */\n  0xffffffffffffffff\n    /* \"#utility.yul\":3690:3701   */\n  dup2\n    /* \"#utility.yul\":3687:3722   */\n  gt\n    /* \"#utility.yul\":3684:3806   */\n  iszero\n  tag_94\n  jumpi\n    /* \"#utility.yul\":3725:3804   */\n  tag_95\n  tag_19\n  jump\t// in\ntag_95:\n    /* \"#utility.yul\":3684:3806   */\ntag_94:\n    /* \"#utility.yul\":3849:3860   */\n  dup1\n    /* \"#utility.yul\":3841:3847   */\n  dup7\n    /* \"#utility.yul\":3837:3861   */\n  add\n    /* \"#utility.yul\":3887:3945   */\n  tag_96\n    /* \"#utility.yul\":3941:3944   */\n  dup10\n    /* \"#utility.yul\":3929:3939   */\n  dup3\n    /* \"#utility.yul\":3887:3945   */\n  tag_30\n  jump\t// in\ntag_96:\n    /* \"#utility.yul\":3882:3885   */\n  dup6\n    /* \"#utility.yul\":3875:3946   */\n  mstore\n    /* \"#utility.yul\":3975:3979   */\n  0x20\n    /* \"#utility.yul\":3970:3973   */\n  dup6\n    /* \"#utility.yul\":3966:3980   */\n  add\n    /* \"#utility.yul\":3959:3980   */\n  swap5\n  pop\n    /* \"#utility.yul\":3627:3990   */\n  pop\n  pop\n    /* \"#utility.yul\":3611:3615   */\n  0x20\n    /* \"#utility.yul\":3606:3609   */\n  dup2\n    /* \"#utility.yul\":3602:3616   */\n  add\n    /* \"#utility.yul\":3595:3616   */\n  swap1\n  pop\n    /* \"#utility.yul\":3551:3990   */\n  jump(tag_91)\ntag_93:\n    /* \"#utility.yul\":3555:3576   */\n  pop\n    /* \"#utility.yul\":3159:3996   */\n  pop\n  pop\n    /* \"#utility.yul\":3036:3996   */\n  swap4\n  swap3\n  pop\n  pop\n  pop\n  jump\t// out\n    /* \"#utility.yul\":4018:4423   */\ntag_32:\n    /* \"#utility.yul\":4110:4115   */\n  0x00\n    /* \"#utility.yul\":4159:4162   */\n  dup3\n    /* \"#utility.yul\":4152:4156   */\n  0x1f\n    /* \"#utility.yul\":4144:4150   */\n  dup4\n    /* \"#utility.yul\":4140:4157   */\n  add\n    /* \"#utility.yul\":4136:4163   */\n  slt\n    /* \"#utility.yul\":4126:4248   */\n  tag_98\n  jumpi\n    /* \"#utility.yul\":4167:4246   */\n  tag_99\n  tag_19\n  jump\t// in\ntag_99:\n    /* \"#utility.yul\":4126:4248   */\ntag_98:\n    /* \"#utility.yul\":4277:4283   */\n  dup2\n    /* \"#utility.yul\":4271:4284   */\n  mload\n    /* \"#utility.yul\":4302:4417   */\n  tag_100\n    /* \"#utility.yul\":4413:4416   */\n  dup5\n    /* \"#utility.yul\":4405:4411   */\n  dup3\n    /* \"#utility.yul\":4398:4402   */\n  0x20\n    /* \"#utility.yul\":4390:4396   */\n  dup7\n    /* \"#utility.yul\":4386:4403   */\n  add\n    /* \"#utility.yul\":4302:4417   */\n  tag_31\n  jump\t// in\ntag_100:\n    /* \"#utility.yul\":4293:4417   */\n  swap2\n  pop\n    /* \"#utility.yul\":4116:4423   */\n  pop\n    /* \"#utility.yul\":4018:4423   */\n  swap3\n  swap2\n  pop\n  pop\n  jump\t// out\n    /* \"#utility.yul\":4429:5003   */\ntag_3:\n    /* \"#utility.yul\":4534:4540   */\n  0x00\n    /* \"#utility.yul\":4583:4585   */\n  0x20\n    /* \"#utility.yul\":4571:4580   */\n  dup3\n    /* \"#utility.yul\":4562:4569   */\n  dup5\n    /* \"#utility.yul\":4558:4581   */\n  sub\n    /* \"#utility.yul\":4554:4586   */\n  slt\n    /* \"#utility.yul\":4551:4670   */\n  iszero\n  tag_102\n  jumpi\n    /* \"#utility.yul\":4589:4668   */\n  tag_103\n  tag_17\n  jump\t// in\ntag_103:\n    /* \"#utility.yul\":4551:4670   */\ntag_102:\n    /* \"#utility.yul\":4730:4731   */\n  0x00\n    /* \"#utility.yul\":4719:4728   */\n  dup3\n    /* \"#utility.yul\":4715:4732   */\n  add\n    /* \"#utility.yul\":4709:4733   */\n  mload\n    /* \"#utility.yul\":4760:4778   */\n  0xffffffffffffffff\n    /* \"#utility.yul\":4752:4758   */\n  dup2\n    /* \"#utility.yul\":4749:4779   */\n  gt\n    /* \"#utility.yul\":4746:4863   */\n  iszero\n  tag_104\n  jumpi\n    /* \"#utility.yul\":4782:4861   */\n  tag_105\n  tag_18\n  jump\t// in\ntag_105:\n    /* \"#utility.yul\":4746:4863   */\ntag_104:\n    /* \"#utility.yul\":4887:4986   */\n  tag_106\n    /* \"#utility.yul\":4978:4985   */\n  dup5\n    /* \"#utility.yul\":4969:4975   */\n  dup3\n    /* \"#utility.yul\":4958:4967   */\n  dup6\n    /* \"#utility.yul\":4954:4976   */\n  add\n    /* \"#utility.yul\":4887:4986   */\n  tag_32\n  jump\t// in\ntag_106:\n    /* \"#utility.yul\":4877:4986   */\n  swap2\n  pop\n    /* \"#utility.yul\":4680:4996   */\n  pop\n    /* \"#utility.yul\":4429:5003   */\n  swap3\n  swap2\n  pop\n  pop\n  jump\t// out\n    /* \"#utility.yul\":5009:5189   */\ntag_11:\n    /* \"#utility.yul\":5057:5134   */\n  0x4e487b7100000000000000000000000000000000000000000000000000000000\n    /* \"#utility.yul\":5054:5055   */\n  0x00\n    /* \"#utility.yul\":5047:5135   */\n  mstore\n    /* \"#utility.yul\":5154:5158   */\n  0x32\n    /* \"#utility.yul\":5151:5152   */\n  0x04\n    /* \"#utility.yul\":5144:5159   */\n  mstore\n    /* \"#utility.yul\":5178:5182   */\n  0x24\n    /* \"#utility.yul\":5175:5176   */\n  0x00\n    /* \"#utility.yul\":5168:5183   */\n  revert\n    /* \"#utility.yul\":5195:5294   */\ntag_33:\n    /* \"#utility.yul\":5247:5253   */\n  0x00\n    /* \"#utility.yul\":5281:5286   */\n  dup2\n    /* \"#utility.yul\":5275:5287   */\n  mload\n    /* \"#utility.yul\":5265:5287   */\n  swap1\n  pop\n    /* \"#utility.yul\":5195:5294   */\n  swap2\n  swap1\n  pop\n  jump\t// out\n    /* \"#utility.yul\":5300:5480   */\ntag_34:\n    /* \"#utility.yul\":5348:5425   */\n  0x4e487b7100000000000000000000000000000000000000000000000000000000\n    /* \"#utility.yul\":5345:5346   */\n  0x00\n    /* \"#utility.yul\":5338:5426   */\n  mstore\n    /* \"#utility.yul\":5445:5449   */\n  0x22\n    /* \"#utility.yul\":5442:5443   */\n  0x04\n    /* \"#utility.yul\":5435:5450   */\n  mstore\n    /* \"#utility.yul\":5469:5473   */\n  0x24\n    /* \"#utility.yul\":5466:5467   */\n  0x00\n    /* \"#utility.yul\":5459:5474   */\n  revert\n    /* \"#utility.yul\":5486:5806   */\ntag_35:\n    /* \"#utility.yul\":5530:5536   */\n  0x00\n    /* \"#utility.yul\":5567:5568   */\n  0x02\n    /* \"#utility.yul\":5561:5565   */\n  dup3\n    /* \"#utility.yul\":5557:5569   */\n  div\n    /* \"#utility.yul\":5547:5569   */\n  swap1\n  pop\n    /* \"#utility.yul\":5614:5615   */\n  0x01\n    /* \"#utility.yul\":5608:5612   */\n  dup3\n    /* \"#utility.yul\":5604:5616   */\n  and\n    /* \"#utility.yul\":5635:5653   */\n  dup1\n    /* \"#utility.yul\":5625:5706   */\n  tag_111\n  jumpi\n    /* \"#utility.yul\":5691:5695   */\n  0x7f\n    /* \"#utility.yul\":5683:5689   */\n  dup3\n    /* \"#utility.yul\":5679:5696   */\n  and\n    /* \"#utility.yul\":5669:5696   */\n  swap2\n  pop\n    /* \"#utility.yul\":5625:5706   */\ntag_111:\n    /* \"#utility.yul\":5753:5755   */\n  0x20\n    /* \"#utility.yul\":5745:5751   */\n  dup3\n    /* \"#utility.yul\":5742:5756   */\n  lt\n    /* \"#utility.yul\":5722:5740   */\n  dup2\n    /* \"#utility.yul\":5719:5757   */\n  sub\n    /* \"#utility.yul\":5716:5800   */\n  tag_112\n  jumpi\n    /* \"#utility.yul\":5772:5790   */\n  tag_113\n  tag_34\n  jump\t// in\ntag_113:\n    /* \"#utility.yul\":5716:5800   */\ntag_112:\n    /* \"#utility.yul\":5537:5806   */\n  pop\n    /* \"#utility.yul\":5486:5806   */\n  swap2\n  swap1\n  pop\n  jump\t// out\n    /* \"#utility.yul\":5812:5953   */\ntag_36:\n    /* \"#utility.yul\":5861:5865   */\n  0x00\n    /* \"#utility.yul\":5884:5887   */\n  dup2\n    /* \"#utility.yul\":5876:5887   */\n  swap1\n  pop\n    /* \"#utility.yul\":5907:5910   */\n  dup2\n    /* \"#utility.yul\":5904:5905   */\n  0x00\n    /* \"#utility.yul\":5897:5911   */\n  mstore\n    /* \"#utility.yul\":5941:5945   */\n  0x20\n    /* \"#utility.yul\":5938:5939   */\n  0x00\n    /* \"#utility.yul\":5928:5946   */\n  keccak256\n    /* \"#utility.yul\":5920:5946   */\n  swap1\n  pop\n    /* \"#utility.yul\":5812:5953   */\n  swap2\n  swap1\n  pop\n  jump\t// out\n    /* \"#utility.yul\":5959:6052   */\ntag_37:\n    /* \"#utility.yul\":5996:6002   */\n  0x00\n    /* \"#utility.yul\":6043:6045   */\n  0x20\n    /* \"#utility.yul\":6038:6040   */\n  0x1f\n    /* \"#utility.yul\":6031:6036   */\n  dup4\n    /* \"#utility.yul\":6027:6041   */\n  add\n    /* \"#utility.yul\":6023:6046   */\n  div\n    /* \"#utility.yul\":6013:6046   */\n  swap1\n  pop\n    /* \"#utility.yul\":5959:6052   */\n  swap2\n  swap1\n  pop\n  jump\t// out\n    /* \"#utility.yul\":6058:6165   */\ntag_38:\n    /* \"#utility.yul\":6102:6110   */\n  0x00\n    /* \"#utility.yul\":6152:6157   */\n  dup3\n    /* \"#utility.yul\":6146:6150   */\n  dup3\n    /* \"#utility.yul\":6142:6158   */\n  shl\n    /* \"#utility.yul\":6121:6158   */\n  swap1\n  pop\n    /* \"#utility.yul\":6058:6165   */\n  swap3\n  swap2\n  pop\n  pop\n  jump\t// out\n    /* \"#utility.yul\":6171:6564   */\ntag_39:\n    /* \"#utility.yul\":6240:6246   */\n  0x00\n    /* \"#utility.yul\":6290:6291   */\n  0x08\n    /* \"#utility.yul\":6278:6288   */\n  dup4\n    /* \"#utility.yul\":6274:6292   */\n  mul\n    /* \"#utility.yul\":6313:6410   */\n  tag_118\n    /* \"#utility.yul\":6343:6409   */\n  0xffffffffffffffffffffffffffffffffffffffffffffffffffffffffffffffff\n    /* \"#utility.yul\":6332:6341   */\n  dup3\n    /* \"#utility.yul\":6313:6410   */\n  tag_38\n  jump\t// in\ntag_118:\n    /* \"#utility.yul\":6431:6470   */\n  tag_119\n    /* \"#utility.yul\":6461:6469   */\n  dup7\n    /* \"#utility.yul\":6450:6459   */\n  dup4\n    /* \"#utility.yul\":6431:6470   */\n  tag_38\n  jump\t// in\ntag_119:\n    /* \"#utility.yul\":6419:6470   */\n  swap6\n  pop\n    /* \"#utility.yul\":6503:6507   */\n  dup1\n    /* \"#utility.yul\":6499:6508   */\n  not\n    /* \"#utility.yul\":6492:6497   */\n  dup5\n    /* \"#utility.yul\":6488:6509   */\n  and\n    /* \"#utility.yul\":6479:6509   */\n  swap4\n  pop\n    /* \"#utility.yul\":6552:6556   */\n  dup1\n    /* \"#utility.yul\":6542:6550   */\n  dup7\n    /* \"#utility.yul\":6538:6557   */\n  and\n    /* \"#utility.yul\":6531:6536   */\n  dup5\n    /* \"#utility.yul\":6528:6558   */\n  or\n    /* \"#utility.yul\":6518:6558   */\n  swap3\n  pop\n    /* \"#utility.yul\":6247:6564   */\n  pop\n  pop\n    /* \"#utility.yul\":6171:6564   */\n  swap4\n  swap3\n  pop\n  pop\n  pop\n  jump\t// out\n    /* \"#utility.yul\":6570:6647   */\ntag_40:\n    /* \"#utility.yul\":6607:6614   */\n  0x00\n    /* \"#utility.yul\":6636:6641   */\n  dup2\n    /* \"#utility.yul\":6625:6641   */\n  swap1\n  pop\n    /* \"#utility.yul\":6570:6647   */\n  swap2\n  swap1\n  pop\n  jump\t// out\n    /* \"#utility.yul\":6653:6713   */\ntag_41:\n    /* \"#utility.yul\":6681:6684   */\n  0x00\n    /* \"#utility.yul\":6702:6707   */\n  dup2\n    /* \"#utility.yul\":6695:6707   */\n  swap1\n  pop\n    /* \"#utility.yul\":6653:6713   */\n  swap2\n  swap1\n  pop\n  jump\t// out\n    /* \"#utility.yul\":6719:6861   */\ntag_42:\n    /* \"#utility.yul\":6769:6778   */\n  0x00\n    /* \"#utility.yul\":6802:6855   */\n  tag_123\n    /* \"#utility.yul\":6820:6854   */\n  tag_124\n    /* \"#utility.yul\":6829:6853   */\n  tag_125\n    /* \"#utility.yul\":6847:6852   */\n  dup5\n    /* \"#utility.yul\":6829:6853   */\n  tag_40\n  jump\t// in\ntag_125:\n    /* \"#utility.yul\":6820:6854   */\n  tag_41\n  jump\t// in\ntag_124:\n    /* \"#utility.yul\":6802:6855   */\n  tag_40\n  jump\t// in\ntag_123:\n    /* \"#utility.yul\":6789:6855   */\n  swap1\n  pop\n    /* \"#utility.yul\":6719:6861   */\n  swap2\n  swap1\n  pop\n  jump\t// out\n    /* \"#utility.yul\":6867:6942   */\ntag_43:\n    /* \"#utility.yul\":6910:6913   */\n  0x00\n    /* \"#utility.yul\":6931:6936   */\n  dup2\n    /* \"#utility.yul\":6924:6936   */\n  swap1\n  pop\n    /* \"#utility.yul\":6867:6942   */\n  swap2\n  swap1\n  pop\n  jump\t// out\n    /* \"#utility.yul\":6948:7217   */\ntag_44:\n    /* \"#utility.yul\":7058:7097   */\n  tag_128\n    /* \"#utility.yul\":7089:7096   */\n  dup4\n    /* \"#utility.yul\":7058:7097   */\n  tag_42\n  jump\t// in\ntag_128:\n    /* \"#utility.yul\":7119:7210   */\n  tag_129\n    /* \"#utility.yul\":7168:7209   */\n  tag_130\n    /* \"#utility.yul\":7192:7208   */\n  dup3\n    /* \"#utility.yul\":7168:7209   */\n  tag_43\n  jump\t// in\ntag_130:\n    /* \"#utility.yul\":7160:7166   */\n  dup5\n    /* \"#utility.yul\":7153:7157   */\n  dup5\n    /* \"#utility.yul\":7147:7158   */\n  sload\n    /* \"#utility.yul\":7119:7210   */\n  tag_39\n  jump\t// in\ntag_129:\n    /* \"#utility.yul\":7113:7117   */\n  dup3\n    /* \"#utility.yul\":7106:7211   */\n  sstore\n    /* \"#utility.yul\":7024:7217   */\n  pop\n    /* \"#utility.yul\":6948:7217   */\n  pop\n  pop\n  pop\n  jump\t// out\n    /* \"#utility.yul\":7223:7296   */\ntag_45:\n    /* \"#utility.yul\":7268:7271   */\n  0x00\n    /* \"#utility.yul\":7289:7290   */\n  0x00\n    /* \"#utility.yul\":7282:7290   */\n  swap1\n  pop\n    /* \"#utility.yul\":7223:7296   */\n  swap1\n  jump\t// out\n    /* \"#utility.yul\":7302:7491   */\ntag_46:\n    /* \"#utility.yul\":7379:7411   */\n  tag_133\n  tag_45\n  jump\t// in\ntag_133:\n    /* \"#utility.yul\":7420:7485   */\n  tag_134\n    /* \"#utility.yul\":7478:7484   */\n  dup2\n    /* \"#utility.yul\":7470:7476   */\n  dup5\n    /* \"#utility.yul\":7464:7468   */\n  dup5\n    /* \"#utility.yul\":7420:7485   */\n  tag_44\n  jump\t// in\ntag_134:\n    /* \"#utility.yul\":7355:7491   */\n  pop\n    /* \"#utility.yul\":7302:7491   */\n  pop\n  pop\n  jump\t// out\n    /* \"#utility.yul\":7497:7711   */\ntag_47:\n    /* \"#utility.yul\":7582:7583   */\n  0x00\n    /* \"#utility.yul\":7567:7705   */\ntag_136:\n    /* \"#utility.yul\":7592:7601   */\n  dup3\n    /* \"#utility.yul\":7589:7590   */\n  dup2\n    /* \"#utility.yul\":7586:7602   */\n  lt\n    /* \"#utility.yul\":7567:7705   */\n  iszero\n  tag_138\n  jumpi\n    /* \"#utility.yul\":7644:7695   */\n  tag_139\n    /* \"#utility.yul\":7693:7694   */\n  0x00\n    /* \"#utility.yul\":7689:7690   */\n  dup3\n    /* \"#utility.yul\":7678:7687   */\n  dup5\n    /* \"#utility.yul\":7674:7691   */\n  add\n    /* \"#utility.yul\":7644:7695   */\n  tag_46\n  jump\t// in\ntag_139:\n    /* \"#utility.yul\":7617:7618   */\n  0x01\n    /* \"#utility.yul\":7614:7615   */\n  dup2\n    /* \"#utility.yul\":7610:7619   */\n  add\n    /* \"#utility.yul\":7605:7619   */\n  swap1\n  pop\n    /* \"#utility.yul\":7567:7705   */\n  jump(tag_136)\ntag_138:\n    /* \"#utility.yul\":7571:7585   */\n  pop\n    /* \"#utility.yul\":7497:7711   */\n  pop\n  pop\n  jump\t// out\n    /* \"#utility.yul\":7717:8463   */\ntag_48:\n    /* \"#utility.yul\":7818:7820   */\n  0x1f\n    /* \"#utility.yul\":7813:7816   */\n  dup3\n    /* \"#utility.yul\":7810:7821   */\n  gt\n    /* \"#utility.yul\":7807:8456   */\n  iszero\n  tag_141\n  jumpi\n    /* \"#utility.yul\":7847:7857   */\n  dup3\n    /* \"#utility.yul\":7842:7845   */\n  dup3\n    /* \"#utility.yul\":7839:7858   */\n  gt\n    /* \"#utility.yul\":7836:8446   */\n  iszero\n  tag_142\n  jumpi\n    /* \"#utility.yul\":7893:7931   */\n  tag_143\n    /* \"#utility.yul\":7925:7930   */\n  dup2\n    /* \"#utility.yul\":7893:7931   */\n  tag_36\n  jump\t// in\ntag_143:\n    /* \"#utility.yul\":7968:7990   */\n  tag_144\n    /* \"#utility.yul\":7986:7989   */\n  dup4\n    /* \"#utility.yul\":7968:7990   */\n  tag_37\n  jump\t// in\ntag_144:\n    /* \"#utility.yul\":8027:8056   */\n  tag_145\n    /* \"#utility.yul\":8045:8055   */\n  dup6\n    /* \"#utility.yul\":8027:8056   */\n  tag_37\n  jump\t// in\ntag_145:\n    /* \"#utility.yul\":8217:8219   */\n  0x20\n    /* \"#utility.yul\":8205:8215   */\n  dup7\n    /* \"#utility.yul\":8202:8220   */\n  lt\n    /* \"#utility.yul\":8199:8278   */\n  iszero\n  tag_146\n  jumpi\n    /* \"#utility.yul\":8259:8260   */\n  0x00\n    /* \"#utility.yul\":8243:8260   */\n  swap1\n  pop\n    /* \"#utility.yul\":8199:8278   */\ntag_146:\n    /* \"#utility.yul\":8328:8340   */\n  dup1\n    /* \"#utility.yul\":8318:8326   */\n  dup4\n    /* \"#utility.yul\":8314:8341   */\n  add\n    /* \"#utility.yul\":8358:8432   */\n  tag_147\n    /* \"#utility.yul\":8418:8430   */\n  dup3\n    /* \"#utility.yul\":8404:8416   */\n  dup5\n    /* \"#utility.yul\":8400:8431   */\n  sub\n    /* \"#utility.yul\":8387:8398   */\n  dup3\n    /* \"#utility.yul\":8358:8432   */\n  tag_47\n  jump\t// in\ntag_147:\n    /* \"#utility.yul\":7859:8446   */\n  pop\n  pop\n  pop\n  pop\n    /* \"#utility.yul\":7836:8446   */\ntag_142:\n    /* \"#utility.yul\":7807:8456   */\ntag_141:\n    /* \"#utility.yul\":7717:8463   */\n  pop\n  pop\n  pop\n  jump\t// out\n    /* \"#utility.yul\":8469:8586   */\ntag_49:\n    /* \"#utility.yul\":8523:8531   */\n  0x00\n    /* \"#utility.yul\":8573:8578   */\n  dup3\n    /* \"#utility.yul\":8567:8571   */\n  dup3\n    /* \"#utility.yul\":8563:8579   */\n  shr\n    /* \"#utility.yul\":8542:8579   */\n  swap1\n  pop\n    /* \"#utility.yul\":8469:8586   */\n  swap3\n  swap2\n  pop\n  pop\n  jump\t// out\n    /* \"#utility.yul\":8592:8761   */\ntag_50:\n    /* \"#utility.yul\":8636:8642   */\n  0x00\n    /* \"#utility.yul\":8669:8720   */\n  tag_150\n    /* \"#utility.yul\":8717:8718   */\n  0x00\n    /* \"#utility.yul\":8713:8719   */\n  not\n    /* \"#utility.yul\":8705:8710   */\n  dup5\n    /* \"#utility.yul\":8702:8703   */\n  0x08\n    /* \"#utility.yul\":8698:8711   */\n  mul\n    /* \"#utility.yul\":8669:8720   */\n  tag_49\n  jump\t// in\ntag_150:\n    /* \"#utility.yul\":8665:8721   */\n  not\n    /* \"#utility.yul\":8750:8754   */\n  dup1\n    /* \"#utility.yul\":8744:8748   */\n  dup4\n    /* \"#utility.yul\":8740:8755   */\n  and\n    /* \"#utility.yul\":8730:8755   */\n  swap2\n  pop\n    /* \"#utility.yul\":8643:8761   */\n  pop\n    /* \"#utility.yul\":8592:8761   */\n  swap3\n  swap2\n  pop\n  pop\n  jump\t// out\n    /* \"#utility.yul\":8766:9061   */\ntag_51:\n    /* \"#utility.yul\":8842:8846   */\n  0x00\n    /* \"#utility.yul\":8988:9017   */\n  tag_152\n    /* \"#utility.yul\":9013:9016   */\n  dup4\n    /* \"#utility.yul\":9007:9011   */\n  dup4\n    /* \"#utility.yul\":8988:9017   */\n  tag_50\n  jump\t// in\ntag_152:\n    /* \"#utility.yul\":8980:9017   */\n  swap2\n  pop\n    /* \"#utility.yul\":9050:9053   */\n  dup3\n    /* \"#utility.yul\":9047:9048   */\n  0x02\n    /* \"#utility.yul\":9043:9054   */\n  mul\n    /* \"#utility.yul\":9037:9041   */\n  dup3\n    /* \"#utility.yul\":9034:9055   */\n  or\n    /* \"#utility.yul\":9026:9055   */\n  swap1\n  pop\n    /* \"#utility.yul\":8766:9061   */\n  swap3\n  swap2\n  pop\n  pop\n  jump\t// out\n    /* \"#utility.yul\":9066:10461   */\ntag_14:\n    /* \"#utility.yul\":9183:9220   */\n  tag_154\n    /* \"#utility.yul\":9216:9219   */\n  dup3\n    /* \"#utility.yul\":9183:9220   */\n  tag_33\n  jump\t// in\ntag_154:\n    /* \"#utility.yul\":9285:9303   */\n  0xffffffffffffffff\n    /* \"#utility.yul\":9277:9283   */\n  dup2\n    /* \"#utility.yul\":9274:9304   */\n  gt\n    /* \"#utility.yul\":9271:9327   */\n  iszero\n  tag_155\n  jumpi\n    /* \"#utility.yul\":9307:9325   */\n  tag_156\n  tag_21\n  jump\t// in\ntag_156:\n    /* \"#utility.yul\":9271:9327   */\ntag_155:\n    /* \"#utility.yul\":9351:9389   */\n  tag_157\n    /* \"#utility.yul\":9383:9387   */\n  dup3\n    /* \"#utility.yul\":9377:9388   */\n  sload\n    /* \"#utility.yul\":9351:9389   */\n  tag_35\n  jump\t// in\ntag_157:\n    /* \"#utility.yul\":9436:9503   */\n  tag_158\n    /* \"#utility.yul\":9496:9502   */\n  dup3\n    /* \"#utility.yul\":9488:9494   */\n  dup3\n    /* \"#utility.yul\":9482:9486   */\n  dup6\n    /* \"#utility.yul\":9436:9503   */\n  tag_48\n  jump\t// in\ntag_158:\n    /* \"#utility.yul\":9530:9531   */\n  0x00\n    /* \"#utility.yul\":9554:9558   */\n  0x20\n    /* \"#utility.yul\":9541:9558   */\n  swap1\n  pop\n    /* \"#utility.yul\":9586:9588   */\n  0x1f\n    /* \"#utility.yul\":9578:9584   */\n  dup4\n    /* \"#utility.yul\":9575:9589   */\n  gt\n    /* \"#utility.yul\":9603:9604   */\n  0x01\n    /* \"#utility.yul\":9598:10216   */\n  dup2\n  eq\n  tag_160\n  jumpi\n    /* \"#utility.yul\":10260:10261   */\n  0x00\n    /* \"#utility.yul\":10277:10283   */\n  dup5\n    /* \"#utility.yul\":10274:10351   */\n  iszero\n  tag_161\n  jumpi\n    /* \"#utility.yul\":10326:10335   */\n  dup3\n    /* \"#utility.yul\":10321:10324   */\n  dup8\n    /* \"#utility.yul\":10317:10336   */\n  add\n    /* \"#utility.yul\":10311:10337   */\n  mload\n    /* \"#utility.yul\":10302:10337   */\n  swap1\n  pop\n    /* \"#utility.yul\":10274:10351   */\ntag_161:\n    /* \"#utility.yul\":10377:10444   */\n  tag_162\n    /* \"#utility.yul\":10437:10443   */\n  dup6\n    /* \"#utility.yul\":10430:10435   */\n  dup3\n    /* \"#utility.yul\":10377:10444   */\n  tag_51\n  jump\t// in\ntag_162:\n    /* \"#utility.yul\":10371:10375   */\n  dup7\n    /* \"#utility.yul\":10364:10445   */\n  sstore\n    /* \"#utility.yul\":10233:10455   */\n  pop\n    /* \"#utility.yul\":9568:10455   */\n  jump(tag_159)\n    /* \"#utility.yul\":9598:10216   */\ntag_160:\n    /* \"#utility.yul\":9650:9654   */\n  0x1f\n    /* \"#utility.yul\":9646:9655   */\n  not\n    /* \"#utility.yul\":9638:9644   */\n  dup5\n    /* \"#utility.yul\":9634:9656   */\n  and\n    /* \"#utility.yul\":9684:9721   */\n  tag_163\n    /* \"#utility.yul\":9716:9720   */\n  dup7\n    /* \"#utility.yul\":9684:9721   */\n  tag_36\n  jump\t// in\ntag_163:\n    /* \"#utility.yul\":9743:9744   */\n  0x00\n    /* \"#utility.yul\":9757:9965   */\ntag_164:\n    /* \"#utility.yul\":9771:9778   */\n  dup3\n    /* \"#utility.yul\":9768:9769   */\n  dup2\n    /* \"#utility.yul\":9765:9779   */\n  lt\n    /* \"#utility.yul\":9757:9965   */\n  iszero\n  tag_166\n  jumpi\n    /* \"#utility.yul\":9850:9859   */\n  dup5\n    /* \"#utility.yul\":9845:9848   */\n  dup10\n    /* \"#utility.yul\":9841:9860   */\n  add\n    /* \"#utility.yul\":9835:9861   */\n  mload\n    /* \"#utility.yul\":9827:9833   */\n  dup3\n    /* \"#utility.yul\":9820:9862   */\n  sstore\n    /* \"#utility.yul\":9901:9902   */\n  0x01\n    /* \"#utility.yul\":9893:9899   */\n  dup3\n    /* \"#utility.yul\":9889:9903   */\n  add\n    /* \"#utility.yul\":9879:9903   */\n  swap2\n  pop\n    /* \"#utility.yul\":9948:9950   */\n  0x20\n    /* \"#utility.yul\":9937:9946   */\n  dup6\n    /* \"#utility.yul\":9933:9951   */\n  add\n    /* \"#utility.yul\":9920:9951   */\n  swap5\n  pop\n    /* \"#utility.yul\":9794:9798   */\n  0x20\n    /* \"#utility.yul\":9791:9792   */\n  dup2\n    /* \"#utility.yul\":9787:9799   */\n  add\n    /* \"#utility.yul\":9782:9799   */\n  swap1\n  pop\n    /* \"#utility.yul\":9757:9965   */\n  jump(tag_164)\ntag_166:\n    /* \"#utility.yul\":9993:9999   */\n  dup7\n    /* \"#utility.yul\":9984:9991   */\n  dup4\n    /* \"#utility.yul\":9981:10000   */\n  lt\n    /* \"#utility.yul\":9978:10157   */\n  iszero\n  tag_167\n  jumpi\n    /* \"#utility.yul\":10051:10060   */\n  dup5\n    /* \"#utility.yul\":10046:10049   */\n  dup10\n    /* \"#utility.yul\":10042:10061   */\n  add\n    /* \"#utility.yul\":10036:10062   */\n  mload\n    /* \"#utility.yul\":10094:10142   */\n  tag_168\n    /* \"#utility.yul\":10136:10140   */\n  0x1f\n    /* \"#utility.yul\":10128:10134   */\n  dup10\n    /* \"#utility.yul\":10124:10141   */\n  and\n    /* \"#utility.yul\":10113:10122   */\n  dup3\n    /* \"#utility.yul\":10094:10142   */\n  tag_50\n  jump\t// in\ntag_168:\n    /* \"#utility.yul\":10086:10092   */\n  dup4\n    /* \"#utility.yul\":10079:10143   */\n  sstore\n    /* \"#utility.yul\":10001:10157   */\n  pop\n    /* \"#utility.yul\":9978:10157   */\ntag_167:\n    /* \"#utility.yul\":10203:10204   */\n  0x01\n    /* \"#utility.yul\":10199:10200   */\n  0x02\n    /* \"#utility.yul\":10191:10197   */\n  dup9\n    /* \"#utility.yul\":10187:10201   */\n  mul\n    /* \"#utility.yul\":10183:10205   */\n  add\n    /* \"#utility.yul\":10177:10181   */\n  dup9\n    /* \"#utility.yul\":10170:10206   */\n  sstore\n    /* \"#utility.yul\":9605:10216   */\n  pop\n  pop\n  pop\n    /* \"#utility.yul\":9568:10455   */\ntag_159:\n  pop\n    /* \"#utility.yul\":9158:10461   */\n  pop\n  pop\n  pop\n    /* \"#utility.yul\":9066:10461   */\n  pop\n  pop\n  jump\t// out\n    /* \"Voting.sol\":60:1790  contract Voting {... */\ntag_15:\n  dataSize(sub_0)\n  dup1\n  dataOffset(sub_0)\n  0x00\n  codecopy\n  0x00\n  return\nstop\n\nsub_0: assembly {\n        /* \"Voting.sol\":60:1790  contract Voting {... */\n      mstore(0x40, 0x80)\n      callvalue\n      dup1\n      iszero\n      tag_1\n      jumpi\n      revert(0x00, 0x00)\n    tag_1:\n      pop\n      jumpi(tag_2, lt(calldatasize, 0x04))\n      shr(0xe0, calldataload(0x00))\n      dup1\n      0x609ff1bd\n      gt\n      tag_10\n      jumpi\n      dup1\n      0x609ff1bd\n      eq\n      tag_6\n      jumpi\n      dup1\n      0x9e7b8d61\n      eq\n      tag_7\n      jumpi\n      dup1\n      0xa3ec138d\n      eq\n      tag_8\n      jumpi\n      dup1\n      0xe2ba53f0\n      eq\n      tag_9\n      jumpi\n      jump(tag_2)\n    tag_10:\n      dup1\n      0x0121b93f\n      eq\n      tag_3\n      jumpi\n      dup1\n      0x013cf08b\n      eq\n      tag_4\n      jumpi\n      dup1\n      0x2e4176cf\n      eq\n      tag_5\n      jumpi\n    tag_2:\n      revert(0x00, 0x00)\n        /* \"Voting.sol\":978:1317  function vote(uint proposalIndex) public {... */\n    tag_3:\n      tag_11\n      0x04\n      dup1\n      calldatasize\n      sub\n      dup2\n      add\n      swap1\n      tag_12\n      swap2\n      swap1\n      tag_13\n      jump\t// in\n    tag_12:\n      tag_14\n      jump\t// in\n    tag_11:\n      stop\n        /* \"Voting.sol\":339:366  Proposal[] public proposals */\n    tag_4:\n      tag_15\n      0x04\n      dup1\n      calldatasize\n      sub\n      dup2\n      add\n      swap1\n      tag_16\n      swap2\n      swap1\n      tag_13\n      jump\t// in\n    tag_16:\n      tag_17\n      jump\t// in\n    tag_15:\n      mload(0x40)\n      tag_18\n      swap3\n      swap2\n      swap1\n      tag_19\n      jump\t// in\n    tag_18:\n      mload(0x40)\n      dup1\n      swap2\n      sub\n      swap1\n      return\n        /* \"Voting.sol\":260:286  address public chairperson */\n    tag_5:\n      tag_20\n      tag_21\n      jump\t// in\n    tag_20:\n      mload(0x40)\n      tag_22\n      swap2\n      swap1\n      tag_23\n      jump\t// in\n    tag_22:\n      mload(0x40)\n      dup1\n      swap2\n      sub\n      swap1\n      return\n        /* \"Voting.sol\":1325:1662  function winningProposal() public view returns (uint winningIndex) {... */\n    tag_6:\n      tag_24\n      tag_25\n      jump\t// in\n    tag_24:\n      mload(0x40)\n      tag_26\n      swap2\n      swap1\n      tag_27\n      jump\t// in\n    tag_26:\n      mload(0x40)\n      dup1\n      swap2\n      sub\n      swap1\n      return\n        /* \"Voting.sol\":667:970  function giveRightToVote(address voter) public {... */\n    tag_7:\n      tag_28\n      0x04\n      dup1\n      calldatasize\n      sub\n      dup2\n      add\n      swap1\n      tag_29\n      swap2\n      swap1\n      tag_30\n      jump\t// in\n    tag_29:\n      tag_31\n      jump\t// in\n    tag_28:\n      stop\n        /* \"Voting.sol\":293:332  mapping(address => Voter) public voters */\n    tag_8:\n      tag_32\n      0x04\n      dup1\n      calldatasize\n      sub\n      dup2\n      add\n      swap1\n      tag_33\n      swap2\n      swap1\n      tag_30\n      jump\t// in\n    tag_33:\n      tag_34\n      jump\t// in\n    tag_32:\n      mload(0x40)\n      tag_35\n      swap4\n      swap3\n      swap2\n      swap1\n      tag_36\n      jump\t// in\n    tag_35:\n      mload(0x40)\n      dup1\n      swap2\n      sub\n      swap1\n      return\n        /* \"Voting.sol\":1670:1787  function winnerName() public view returns (string memory) {... */\n    tag_9:\n      tag_37\n      tag_38\n      jump\t// in\n    tag_37:\n      mload(0x40)\n      tag_39\n      swap2\n      swap1\n      tag_40\n      jump\t// in\n    tag_39:\n      mload(0x40)\n      dup1\n      swap2\n      sub\n      swap1\n      return\n        /* \"Voting.sol\":978:1317  function vote(uint proposalIndex) public {... */\n    tag_14:\n        /* \"Voting.sol\":1038:1044  voters */\n      0x01\n        /* \"Voting.sol\":1038:1056  voters[msg.sender] */\n      0x00\n        /* \"Voting.sol\":1045:1055  msg.sender */\n      caller\n        /* \"Voting.sol\":1038:1056  voters[msg.sender] */\n      0xffffffffffffffffffffffffffffffffffffffff\n      and\n      0xffffffffffffffffffffffffffffffffffffffff\n      and\n      dup2\n      mstore\n      0x20\n      add\n      swap1\n      dup2\n      mstore\n      0x20\n      add\n      0x00\n      keccak256\n        /* \"Voting.sol\":1038:1067  voters[msg.sender].authorized */\n      0x00\n      add\n      0x00\n      swap1\n      sload\n      swap1\n      0x0100\n      exp\n      swap1\n      div\n      0xff\n      and\n        /* \"Voting.sol\":1030:1095  require(voters[msg.sender].authorized, \"Not authorized to vote.\") */\n      tag_42\n      jumpi\n      mload(0x40)\n      0x08c379a000000000000000000000000000000000000000000000000000000000\n      dup2\n      mstore\n      0x04\n      add\n      tag_43\n      swap1\n      tag_44\n      jump\t// in\n    tag_43:\n      mload(0x40)\n      dup1\n      swap2\n      sub\n      swap1\n      revert\n    tag_42:\n        /* \"Voting.sol\":1115:1121  voters */\n      0x01\n        /* \"Voting.sol\":1115:1133  voters[msg.sender] */\n      0x00\n        /* \"Voting.sol\":1122:1132  msg.sender */\n      caller\n        /* \"Voting.sol\":1115:1133  voters[msg.sender] */\n      0xffffffffffffffffffffffffffffffffffffffff\n      and\n      0xffffffffffffffffffffffffffffffffffffffff\n      and\n      dup2\n      mstore\n      0x20\n      add\n      swap1\n      dup2\n      mstore\n      0x20\n      add\n      0x00\n      keccak256\n        /* \"Voting.sol\":1115:1139  voters[msg.sender].voted */\n      0x00\n      add\n      0x01\n      swap1\n      sload\n      swap1\n      0x0100\n      exp\n      swap1\n      div\n      0xff\n      and\n        /* \"Voting.sol\":1114:1139  !voters[msg.sender].voted */\n      iszero\n        /* \"Voting.sol\":1106:1167  require(!voters[msg.sender].voted, \"You have already voted!\") */\n      tag_45\n      jumpi\n      mload(0x40)\n      0x08c379a000000000000000000000000000000000000000000000000000000000\n      dup2\n      mstore\n      0x04\n      add\n      tag_46\n      swap1\n      tag_47\n      jump\t// in\n    tag_46:\n      mload(0x40)\n      dup1\n      swap2\n      sub\n      swap1\n      revert\n    tag_45:\n        /* \"Voting.sol\":1205:1209  true */\n      0x01\n        /* \"Voting.sol\":1178:1184  voters */\n      dup1\n        /* \"Voting.sol\":1178:1196  voters[msg.sender] */\n      0x00\n        /* \"Voting.sol\":1185:1195  msg.sender */\n      caller\n        /* \"Voting.sol\":1178:1196  voters[msg.sender] */\n      0xffffffffffffffffffffffffffffffffffffffff\n      and\n      0xffffffffffffffffffffffffffffffffffffffff\n      and\n      dup2\n      mstore\n      0x20\n      add\n      swap1\n      dup2\n      mstore\n      0x20\n      add\n      0x00\n      keccak256\n        /* \"Voting.sol\":1178:1202  voters[msg.sender].voted */\n      0x00\n      add\n      0x01\n        /* \"Voting.sol\":1178:1209  voters[msg.sender].voted = true */\n      0x0100\n      exp\n      dup2\n      sload\n      dup2\n      0xff\n      mul\n      not\n      and\n      swap1\n      dup4\n      iszero\n      iszero\n      mul\n      or\n      swap1\n      sstore\n      pop\n        /* \"Voting.sol\":1246:1259  proposalIndex */\n      dup1\n        /* \"Voting.sol\":1220:1226  voters */\n      0x01\n        /* \"Voting.sol\":1220:1238  voters[msg.sender] */\n      0x00\n        /* \"Voting.sol\":1227:1237  msg.sender */\n      caller\n        /* \"Voting.sol\":1220:1238  voters[msg.sender] */\n      0xffffffffffffffffffffffffffffffffffffffff\n      and\n      0xffffffffffffffffffffffffffffffffffffffff\n      and\n      dup2\n      mstore\n      0x20\n      add\n      swap1\n      dup2\n      mstore\n      0x20\n      add\n      0x00\n      keccak256\n        /* \"Voting.sol\":1220:1243  voters[msg.sender].vote */\n      0x01\n      add\n        /* \"Voting.sol\":1220:1259  voters[msg.sender].vote = proposalIndex */\n      dup2\n      swap1\n      sstore\n      pop\n        /* \"Voting.sol\":1308:1309  1 */\n      0x01\n        /* \"Voting.sol\":1270:1279  proposals */\n      0x02\n        /* \"Voting.sol\":1280:1293  proposalIndex */\n      dup3\n        /* \"Voting.sol\":1270:1294  proposals[proposalIndex] */\n      dup2\n      sload\n      dup2\n      lt\n      tag_48\n      jumpi\n      tag_49\n      tag_50\n      jump\t// in\n    tag_49:\n    tag_48:\n      swap1\n      0x00\n      mstore\n      keccak256(0x00, 0x20)\n      swap1\n      0x02\n      mul\n      add\n        /* \"Voting.sol\":1270:1304  proposals[proposalIndex].voteCount */\n      0x01\n      add\n      0x00\n        /* \"Voting.sol\":1270:1309  proposals[proposalIndex].voteCount += 1 */\n      dup3\n      dup3\n      sload\n      tag_52\n      swap2\n      swap1\n      tag_53\n      jump\t// in\n    tag_52:\n      swap3\n      pop\n      pop\n      dup2\n      swap1\n      sstore\n      pop\n        /* \"Voting.sol\":978:1317  function vote(uint proposalIndex) public {... */\n      pop\n      jump\t// out\n        /* \"Voting.sol\":339:366  Proposal[] public proposals */\n    tag_17:\n      0x02\n      dup2\n      dup2\n      sload\n      dup2\n      lt\n      tag_54\n      jumpi\n      0x00\n      dup1\n      revert\n    tag_54:\n      swap1\n      0x00\n      mstore\n      keccak256(0x00, 0x20)\n      swap1\n      0x02\n      mul\n      add\n      0x00\n      swap2\n      pop\n      swap1\n      pop\n      dup1\n      0x00\n      add\n      dup1\n      sload\n      tag_56\n      swap1\n      tag_57\n      jump\t// in\n    tag_56:\n      dup1\n      0x1f\n      add\n      0x20\n      dup1\n      swap2\n      div\n      mul\n      0x20\n      add\n      mload(0x40)\n      swap1\n      dup2\n      add\n      0x40\n      mstore\n      dup1\n      swap3\n      swap2\n      swap1\n      dup2\n      dup2\n      mstore\n      0x20\n      add\n      dup3\n      dup1\n      sload\n      tag_58\n      swap1\n      tag_57\n      jump\t// in\n    tag_58:\n      dup1\n      iszero\n      tag_59\n      jumpi\n      dup1\n      0x1f\n      lt\n      tag_60\n      jumpi\n      0x0100\n      dup1\n      dup4\n      sload\n      div\n      mul\n      dup4\n      mstore\n      swap2\n      0x20\n      add\n      swap2\n      jump(tag_59)\n    tag_60:\n      dup3\n      add\n      swap2\n      swap1\n      0x00\n      mstore\n      keccak256(0x00, 0x20)\n      swap1\n    tag_61:\n      dup2\n      sload\n      dup2\n      mstore\n      swap1\n      0x01\n      add\n      swap1\n      0x20\n      add\n      dup1\n      dup4\n      gt\n      tag_61\n      jumpi\n      dup3\n      swap1\n      sub\n      0x1f\n      and\n      dup3\n      add\n      swap2\n    tag_59:\n      pop\n      pop\n      pop\n      pop\n      pop\n      swap1\n      dup1\n      0x01\n      add\n      sload\n      swap1\n      pop\n      dup3\n      jump\t// out\n        /* \"Voting.sol\":260:286  address public chairperson */\n    tag_21:\n      0x00\n      0x00\n      swap1\n      sload\n      swap1\n      0x0100\n      exp\n      swap1\n      div\n      0xffffffffffffffffffffffffffffffffffffffff\n      and\n      dup2\n      jump\t// out\n        /* \"Voting.sol\":1325:1662  function winningProposal() public view returns (uint winningIndex) {... */\n    tag_25:\n        /* \"Voting.sol\":1373:1390  uint winningIndex */\n      0x00\n        /* \"Voting.sol\":1403:1420  uint highestVotes */\n      0x00\n        /* \"Voting.sol\":1423:1424  0 */\n      0x00\n        /* \"Voting.sol\":1403:1424  uint highestVotes = 0 */\n      swap1\n      pop\n        /* \"Voting.sol\":1440:1446  uint i */\n      0x00\n        /* \"Voting.sol\":1449:1450  0 */\n      0x00\n        /* \"Voting.sol\":1440:1450  uint i = 0 */\n      swap1\n      pop\n        /* \"Voting.sol\":1435:1655  for (uint i = 0; i < proposals.length; i++) {... */\n    tag_63:\n        /* \"Voting.sol\":1456:1465  proposals */\n      0x02\n        /* \"Voting.sol\":1456:1472  proposals.length */\n      dup1\n      sload\n      swap1\n      pop\n        /* \"Voting.sol\":1452:1453  i */\n      dup2\n        /* \"Voting.sol\":1452:1472  i < proposals.length */\n      lt\n        /* \"Voting.sol\":1435:1655  for (uint i = 0; i < proposals.length; i++) {... */\n      iszero\n      tag_64\n      jumpi\n        /* \"Voting.sol\":1523:1535  highestVotes */\n      dup2\n        /* \"Voting.sol\":1498:1507  proposals */\n      0x02\n        /* \"Voting.sol\":1508:1509  i */\n      dup3\n        /* \"Voting.sol\":1498:1510  proposals[i] */\n      dup2\n      sload\n      dup2\n      lt\n      tag_66\n      jumpi\n      tag_67\n      tag_50\n      jump\t// in\n    tag_67:\n    tag_66:\n      swap1\n      0x00\n      mstore\n      keccak256(0x00, 0x20)\n      swap1\n      0x02\n      mul\n      add\n        /* \"Voting.sol\":1498:1520  proposals[i].voteCount */\n      0x01\n      add\n      sload\n        /* \"Voting.sol\":1498:1535  proposals[i].voteCount > highestVotes */\n      gt\n        /* \"Voting.sol\":1494:1644  if (proposals[i].voteCount > highestVotes) {... */\n      iszero\n      tag_69\n      jumpi\n        /* \"Voting.sol\":1571:1580  proposals */\n      0x02\n        /* \"Voting.sol\":1581:1582  i */\n      dup2\n        /* \"Voting.sol\":1571:1583  proposals[i] */\n      dup2\n      sload\n      dup2\n      lt\n      tag_70\n      jumpi\n      tag_71\n      tag_50\n      jump\t// in\n    tag_71:\n    tag_70:\n      swap1\n      0x00\n      mstore\n      keccak256(0x00, 0x20)\n      swap1\n      0x02\n      mul\n      add\n        /* \"Voting.sol\":1571:1593  proposals[i].voteCount */\n      0x01\n      add\n      sload\n        /* \"Voting.sol\":1556:1593  highestVotes = proposals[i].voteCount */\n      swap2\n      pop\n        /* \"Voting.sol\":1627:1628  i */\n      dup1\n        /* \"Voting.sol\":1612:1628  winningIndex = i */\n      swap3\n      pop\n        /* \"Voting.sol\":1494:1644  if (proposals[i].voteCount > highestVotes) {... */\n    tag_69:\n        /* \"Voting.sol\":1474:1477  i++ */\n      dup1\n      dup1\n      0x01\n      add\n      swap2\n      pop\n      pop\n        /* \"Voting.sol\":1435:1655  for (uint i = 0; i < proposals.length; i++) {... */\n      jump(tag_63)\n    tag_64:\n      pop\n        /* \"Voting.sol\":1392:1662  {... */\n      pop\n        /* \"Voting.sol\":1325:1662  function winningProposal() public view returns (uint winningIndex) {... */\n      swap1\n      jump\t// out\n        /* \"Voting.sol\":667:970  function giveRightToVote(address voter) public {... */\n    tag_31:\n        /* \"Voting.sol\":747:758  chairperson */\n      0x00\n      0x00\n      swap1\n      sload\n      swap1\n      0x0100\n      exp\n      swap1\n      div\n      0xffffffffffffffffffffffffffffffffffffffff\n      and\n        /* \"Voting.sol\":733:758  msg.sender == chairperson */\n      0xffffffffffffffffffffffffffffffffffffffff\n      and\n        /* \"Voting.sol\":733:743  msg.sender */\n      caller\n        /* \"Voting.sol\":733:758  msg.sender == chairperson */\n      0xffffffffffffffffffffffffffffffffffffffff\n      and\n      eq\n        /* \"Voting.sol\":725:794  require(msg.sender == chairperson, \"Only chairperson can authorize.\") */\n      tag_74\n      jumpi\n      mload(0x40)\n      0x08c379a000000000000000000000000000000000000000000000000000000000\n      dup2\n      mstore\n      0x04\n      add\n      tag_75\n      swap1\n      tag_76\n      jump\t// in\n    tag_75:\n      mload(0x40)\n      dup1\n      swap2\n      sub\n      swap1\n      revert\n    tag_74:\n        /* \"Voting.sol\":814:820  voters */\n      0x01\n        /* \"Voting.sol\":814:827  voters[voter] */\n      0x00\n        /* \"Voting.sol\":821:826  voter */\n      dup3\n        /* \"Voting.sol\":814:827  voters[voter] */\n      0xffffffffffffffffffffffffffffffffffffffff\n      and\n      0xffffffffffffffffffffffffffffffffffffffff\n      and\n      dup2\n      mstore\n      0x20\n      add\n      swap1\n      dup2\n      mstore\n      0x20\n      add\n      0x00\n      keccak256\n        /* \"Voting.sol\":814:833  voters[voter].voted */\n      0x00\n      add\n      0x01\n      swap1\n      sload\n      swap1\n      0x0100\n      exp\n      swap1\n      div\n      0xff\n      and\n        /* \"Voting.sol\":813:833  !voters[voter].voted */\n      iszero\n        /* \"Voting.sol\":805:852  require(!voters[voter].voted, \"Already voted.\") */\n      tag_77\n      jumpi\n      mload(0x40)\n      0x08c379a000000000000000000000000000000000000000000000000000000000\n      dup2\n      mstore\n      0x04\n      add\n      tag_78\n      swap1\n      tag_79\n      jump\t// in\n    tag_78:\n      mload(0x40)\n      dup1\n      swap2\n      sub\n      swap1\n      revert\n    tag_77:\n        /* \"Voting.sol\":872:878  voters */\n      0x01\n        /* \"Voting.sol\":872:885  voters[voter] */\n      0x00\n        /* \"Voting.sol\":879:884  voter */\n      dup3\n        /* \"Voting.sol\":872:885  voters[voter] */\n      0xffffffffffffffffffffffffffffffffffffffff\n      and\n      0xffffffffffffffffffffffffffffffffffffffff\n      and\n      dup2\n      mstore\n      0x20\n      add\n      swap1\n      dup2\n      mstore\n      0x20\n      add\n      0x00\n      keccak256\n        /* \"Voting.sol\":872:896  voters[voter].authorized */\n      0x00\n      add\n      0x00\n      swap1\n      sload\n      swap1\n      0x0100\n      exp\n      swap1\n      div\n      0xff\n      and\n        /* \"Voting.sol\":871:896  !voters[voter].authorized */\n      iszero\n        /* \"Voting.sol\":863:920  require(!voters[voter].authorized, \"Already authorized.\") */\n      tag_80\n      jumpi\n      mload(0x40)\n      0x08c379a000000000000000000000000000000000000000000000000000000000\n      dup2\n      mstore\n      0x04\n      add\n      tag_81\n      swap1\n      tag_82\n      jump\t// in\n    tag_81:\n      mload(0x40)\n      dup1\n      swap2\n      sub\n      swap1\n      revert\n    tag_80:\n        /* \"Voting.sol\":958:962  true */\n      0x01\n        /* \"Voting.sol\":931:937  voters */\n      dup1\n        /* \"Voting.sol\":931:944  voters[voter] */\n      0x00\n        /* \"Voting.sol\":938:943  voter */\n      dup4\n        /* \"Voting.sol\":931:944  voters[voter] */\n      0xffffffffffffffffffffffffffffffffffffffff\n      and\n      0xffffffffffffffffffffffffffffffffffffffff\n      and\n      dup2\n      mstore\n      0x20\n      add\n      swap1\n      dup2\n      mstore\n      0x20\n      add\n      0x00\n      keccak256\n        /* \"Voting.sol\":931:955  voters[voter].authorized */\n      0x00\n      add\n      0x00\n        /* \"Voting.sol\":931:962  voters[voter].authorized = true */\n      0x0100\n      exp\n      dup2\n      sload\n      dup2\n      0xff\n      mul\n      not\n      and\n      swap1\n      dup4\n      iszero\n      iszero\n      mul\n      or\n      swap1\n      sstore\n      pop\n        /* \"Voting.sol\":667:970  function giveRightToVote(address voter) public {... */\n      pop\n      jump\t// out\n        /* \"Voting.sol\":293:332  mapping(address => Voter) public voters */\n    tag_34:\n      mstore(0x20, 0x01)\n      dup1\n      0x00\n      mstore\n      keccak256(0x00, 0x40)\n      0x00\n      swap2\n      pop\n      swap1\n      pop\n      dup1\n      0x00\n      add\n      0x00\n      swap1\n      sload\n      swap1\n      0x0100\n      exp\n      swap1\n      div\n      0xff\n      and\n      swap1\n      dup1\n      0x00\n      add\n      0x01\n      swap1\n      sload\n      swap1\n      0x0100\n      exp\n      swap1\n      div\n      0xff\n      and\n      swap1\n      dup1\n      0x01\n      add\n      sload\n      swap1\n      pop\n      dup4\n      jump\t// out\n        /* \"Voting.sol\":1670:1787  function winnerName() public view returns (string memory) {... */\n    tag_38:\n        /* \"Voting.sol\":1713:1726  string memory */\n      0x60\n        /* \"Voting.sol\":1746:1755  proposals */\n      0x02\n        /* \"Voting.sol\":1756:1773  winningProposal() */\n      tag_84\n        /* \"Voting.sol\":1756:1771  winningProposal */\n      tag_25\n        /* \"Voting.sol\":1756:1773  winningProposal() */\n      jump\t// in\n    tag_84:\n        /* \"Voting.sol\":1746:1774  proposals[winningProposal()] */\n      dup2\n      sload\n      dup2\n      lt\n      tag_85\n      jumpi\n      tag_86\n      tag_50\n      jump\t// in\n    tag_86:\n    tag_85:\n      swap1\n      0x00\n      mstore\n      keccak256(0x00, 0x20)\n      swap1\n      0x02\n      mul\n      add\n        /* \"Voting.sol\":1746:1779  proposals[winningProposal()].name */\n      0x00\n      add\n        /* \"Voting.sol\":1739:1779  return proposals[winningProposal()].name */\n      dup1\n      sload\n      tag_88\n      swap1\n      tag_57\n      jump\t// in\n    tag_88:\n      dup1\n      0x1f\n      add\n      0x20\n      dup1\n      swap2\n      div\n      mul\n      0x20\n      add\n      mload(0x40)\n      swap1\n      dup2\n      add\n      0x40\n      mstore\n      dup1\n      swap3\n      swap2\n      swap1\n      dup2\n      dup2\n      mstore\n      0x20\n      add\n      dup3\n      dup1\n      sload\n      tag_89\n      swap1\n      tag_57\n      jump\t// in\n    tag_89:\n      dup1\n      iszero\n      tag_90\n      jumpi\n      dup1\n      0x1f\n      lt\n      tag_91\n      jumpi\n      0x0100\n      dup1\n      dup4\n      sload\n      div\n      mul\n      dup4\n      mstore\n      swap2\n      0x20\n      add\n      swap2\n      jump(tag_90)\n    tag_91:\n      dup3\n      add\n      swap2\n      swap1\n      0x00\n      mstore\n      keccak256(0x00, 0x20)\n      swap1\n    tag_92:\n      dup2\n      sload\n      dup2\n      mstore\n      swap1\n      0x01\n      add\n      swap1\n      0x20\n      add\n      dup1\n      dup4\n      gt\n      tag_92\n      jumpi\n      dup3\n      swap1\n      sub\n      0x1f\n      and\n      dup3\n      add\n      swap2\n    tag_90:\n      pop\n      pop\n      pop\n      pop\n      pop\n      swap1\n      pop\n        /* \"Voting.sol\":1670:1787  function winnerName() public view returns (string memory) {... */\n      swap1\n      jump\t// out\n        /* \"#utility.yul\":88:205   */\n    tag_94:\n        /* \"#utility.yul\":197:198   */\n      0x00\n        /* \"#utility.yul\":194:195   */\n      0x00\n        /* \"#utility.yul\":187:199   */\n      revert\n        /* \"#utility.yul\":334:411   */\n    tag_96:\n        /* \"#utility.yul\":371:378   */\n      0x00\n        /* \"#utility.yul\":400:405   */\n      dup2\n        /* \"#utility.yul\":389:405   */\n      swap1\n      pop\n        /* \"#utility.yul\":334:411   */\n      swap2\n      swap1\n      pop\n      jump\t// out\n        /* \"#utility.yul\":417:539   */\n    tag_97:\n        /* \"#utility.yul\":490:514   */\n      tag_130\n        /* \"#utility.yul\":508:513   */\n      dup2\n        /* \"#utility.yul\":490:514   */\n      tag_96\n      jump\t// in\n    tag_130:\n        /* \"#utility.yul\":483:488   */\n      dup2\n        /* \"#utility.yul\":480:515   */\n      eq\n        /* \"#utility.yul\":470:533   */\n      tag_131\n      jumpi\n        /* \"#utility.yul\":529:530   */\n      0x00\n        /* \"#utility.yul\":526:527   */\n      0x00\n        /* \"#utility.yul\":519:531   */\n      revert\n        /* \"#utility.yul\":470:533   */\n    tag_131:\n        /* \"#utility.yul\":417:539   */\n      pop\n      jump\t// out\n        /* \"#utility.yul\":545:684   */\n    tag_98:\n        /* \"#utility.yul\":591:596   */\n      0x00\n        /* \"#utility.yul\":629:635   */\n      dup2\n        /* \"#utility.yul\":616:636   */\n      calldataload\n        /* \"#utility.yul\":607:636   */\n      swap1\n      pop\n        /* \"#utility.yul\":645:678   */\n      tag_133\n        /* \"#utility.yul\":672:677   */\n      dup2\n        /* \"#utility.yul\":645:678   */\n      tag_97\n      jump\t// in\n    tag_133:\n        /* \"#utility.yul\":545:684   */\n      swap3\n      swap2\n      pop\n      pop\n      jump\t// out\n        /* \"#utility.yul\":690:1019   */\n    tag_13:\n        /* \"#utility.yul\":749:755   */\n      0x00\n        /* \"#utility.yul\":798:800   */\n      0x20\n        /* \"#utility.yul\":786:795   */\n      dup3\n        /* \"#utility.yul\":777:784   */\n      dup5\n        /* \"#utility.yul\":773:796   */\n      sub\n        /* \"#utility.yul\":769:801   */\n      slt\n        /* \"#utility.yul\":766:885   */\n      iszero\n      tag_135\n      jumpi\n        /* \"#utility.yul\":804:883   */\n      tag_136\n      tag_94\n      jump\t// in\n    tag_136:\n        /* \"#utility.yul\":766:885   */\n    tag_135:\n        /* \"#utility.yul\":924:925   */\n      0x00\n        /* \"#utility.yul\":949:1002   */\n      tag_137\n        /* \"#utility.yul\":994:1001   */\n      dup5\n        /* \"#utility.yul\":985:991   */\n      dup3\n        /* \"#utility.yul\":974:983   */\n      dup6\n        /* \"#utility.yul\":970:992   */\n      add\n        /* \"#utility.yul\":949:1002   */\n      tag_98\n      jump\t// in\n    tag_137:\n        /* \"#utility.yul\":939:1002   */\n      swap2\n      pop\n        /* \"#utility.yul\":895:1012   */\n      pop\n        /* \"#utility.yul\":690:1019   */\n      swap3\n      swap2\n      pop\n      pop\n      jump\t// out\n        /* \"#utility.yul\":1025:1124   */\n    tag_99:\n        /* \"#utility.yul\":1077:1083   */\n      0x00\n        /* \"#utility.yul\":1111:1116   */\n      dup2\n        /* \"#utility.yul\":1105:1117   */\n      mload\n        /* \"#utility.yul\":1095:1117   */\n      swap1\n      pop\n        /* \"#utility.yul\":1025:1124   */\n      swap2\n      swap1\n      pop\n      jump\t// out\n        /* \"#utility.yul\":1130:1299   */\n    tag_100:\n        /* \"#utility.yul\":1214:1225   */\n      0x00\n        /* \"#utility.yul\":1248:1254   */\n      dup3\n        /* \"#utility.yul\":1243:1246   */\n      dup3\n        /* \"#utility.yul\":1236:1255   */\n      mstore\n        /* \"#utility.yul\":1288:1292   */\n      0x20\n        /* \"#utility.yul\":1283:1286   */\n      dup3\n        /* \"#utility.yul\":1279:1293   */\n      add\n        /* \"#utility.yul\":1264:1293   */\n      swap1\n      pop\n        /* \"#utility.yul\":1130:1299   */\n      swap3\n      swap2\n      pop\n      pop\n      jump\t// out\n        /* \"#utility.yul\":1305:1444   */\n    tag_101:\n        /* \"#utility.yul\":1394:1400   */\n      dup3\n        /* \"#utility.yul\":1389:1392   */\n      dup2\n        /* \"#utility.yul\":1384:1387   */\n      dup4\n        /* \"#utility.yul\":1378:1401   */\n      mcopy\n        /* \"#utility.yul\":1435:1436   */\n      0x00\n        /* \"#utility.yul\":1426:1432   */\n      dup4\n        /* \"#utility.yul\":1421:1424   */\n      dup4\n        /* \"#utility.yul\":1417:1433   */\n      add\n        /* \"#utility.yul\":1410:1437   */\n      mstore\n        /* \"#utility.yul\":1305:1444   */\n      pop\n      pop\n      pop\n      jump\t// out\n        /* \"#utility.yul\":1450:1552   */\n    tag_102:\n        /* \"#utility.yul\":1491:1497   */\n      0x00\n        /* \"#utility.yul\":1542:1544   */\n      0x1f\n        /* \"#utility.yul\":1538:1545   */\n      not\n        /* \"#utility.yul\":1533:1535   */\n      0x1f\n        /* \"#utility.yul\":1526:1531   */\n      dup4\n        /* \"#utility.yul\":1522:1536   */\n      add\n        /* \"#utility.yul\":1518:1546   */\n      and\n        /* \"#utility.yul\":1508:1546   */\n      swap1\n      pop\n        /* \"#utility.yul\":1450:1552   */\n      swap2\n      swap1\n      pop\n      jump\t// out\n        /* \"#utility.yul\":1558:1935   */\n    tag_103:\n        /* \"#utility.yul\":1646:1649   */\n      0x00\n        /* \"#utility.yul\":1674:1713   */\n      tag_143\n        /* \"#utility.yul\":1707:1712   */\n      dup3\n        /* \"#utility.yul\":1674:1713   */\n      tag_99\n      jump\t// in\n    tag_143:\n        /* \"#utility.yul\":1729:1800   */\n      tag_144\n        /* \"#utility.yul\":1793:1799   */\n      dup2\n        /* \"#utility.yul\":1788:1791   */\n      dup6\n        /* \"#utility.yul\":1729:1800   */\n      tag_100\n      jump\t// in\n    tag_144:\n        /* \"#utility.yul\":1722:1800   */\n      swap4\n      pop\n        /* \"#utility.yul\":1809:1874   */\n      tag_145\n        /* \"#utility.yul\":1867:1873   */\n      dup2\n        /* \"#utility.yul\":1862:1865   */\n      dup6\n        /* \"#utility.yul\":1855:1859   */\n      0x20\n        /* \"#utility.yul\":1848:1853   */\n      dup7\n        /* \"#utility.yul\":1844:1860   */\n      add\n        /* \"#utility.yul\":1809:1874   */\n      tag_101\n      jump\t// in\n    tag_145:\n        /* \"#utility.yul\":1899:1928   */\n      tag_146\n        /* \"#utility.yul\":1921:1927   */\n      dup2\n        /* \"#utility.yul\":1899:1928   */\n      tag_102\n      jump\t// in\n    tag_146:\n        /* \"#utility.yul\":1894:1897   */\n      dup5\n        /* \"#utility.yul\":1890:1929   */\n      add\n        /* \"#utility.yul\":1883:1929   */\n      swap2\n      pop\n        /* \"#utility.yul\":1650:1935   */\n      pop\n        /* \"#utility.yul\":1558:1935   */\n      swap3\n      swap2\n      pop\n      pop\n      jump\t// out\n        /* \"#utility.yul\":1941:2059   */\n    tag_104:\n        /* \"#utility.yul\":2028:2052   */\n      tag_148\n        /* \"#utility.yul\":2046:2051   */\n      dup2\n        /* \"#utility.yul\":2028:2052   */\n      tag_96\n      jump\t// in\n    tag_148:\n        /* \"#utility.yul\":2023:2026   */\n      dup3\n        /* \"#utility.yul\":2016:2053   */\n      mstore\n        /* \"#utility.yul\":1941:2059   */\n      pop\n      pop\n      jump\t// out\n        /* \"#utility.yul\":2065:2488   */\n    tag_19:\n        /* \"#utility.yul\":2206:2210   */\n      0x00\n        /* \"#utility.yul\":2244:2246   */\n      0x40\n        /* \"#utility.yul\":2233:2242   */\n      dup3\n        /* \"#utility.yul\":2229:2247   */\n      add\n        /* \"#utility.yul\":2221:2247   */\n      swap1\n      pop\n        /* \"#utility.yul\":2293:2302   */\n      dup2\n        /* \"#utility.yul\":2287:2291   */\n      dup2\n        /* \"#utility.yul\":2283:2303   */\n      sub\n        /* \"#utility.yul\":2279:2280   */\n      0x00\n        /* \"#utility.yul\":2268:2277   */\n      dup4\n        /* \"#utility.yul\":2264:2281   */\n      add\n        /* \"#utility.yul\":2257:2304   */\n      mstore\n        /* \"#utility.yul\":2321:2399   */\n      tag_150\n        /* \"#utility.yul\":2394:2398   */\n      dup2\n        /* \"#utility.yul\":2385:2391   */\n      dup6\n        /* \"#utility.yul\":2321:2399   */\n      tag_103\n      jump\t// in\n    tag_150:\n        /* \"#utility.yul\":2313:2399   */\n      swap1\n      pop\n        /* \"#utility.yul\":2409:2481   */\n      tag_151\n        /* \"#utility.yul\":2477:2479   */\n      0x20\n        /* \"#utility.yul\":2466:2475   */\n      dup4\n        /* \"#utility.yul\":2462:2480   */\n      add\n        /* \"#utility.yul\":2453:2459   */\n      dup5\n        /* \"#utility.yul\":2409:2481   */\n      tag_104\n      jump\t// in\n    tag_151:\n        /* \"#utility.yul\":2065:2488   */\n      swap4\n      swap3\n      pop\n      pop\n      pop\n      jump\t// out\n        /* \"#utility.yul\":2494:2620   */\n    tag_105:\n        /* \"#utility.yul\":2531:2538   */\n      0x00\n        /* \"#utility.yul\":2571:2613   */\n      0xffffffffffffffffffffffffffffffffffffffff\n        /* \"#utility.yul\":2564:2569   */\n      dup3\n        /* \"#utility.yul\":2560:2614   */\n      and\n        /* \"#utility.yul\":2549:2614   */\n      swap1\n      pop\n        /* \"#utility.yul\":2494:2620   */\n      swap2\n      swap1\n      pop\n      jump\t// out\n        /* \"#utility.yul\":2626:2722   */\n    tag_106:\n        /* \"#utility.yul\":2663:2670   */\n      0x00\n        /* \"#utility.yul\":2692:2716   */\n      tag_154\n        /* \"#utility.yul\":2710:2715   */\n      dup3\n        /* \"#utility.yul\":2692:2716   */\n      tag_105\n      jump\t// in\n    tag_154:\n        /* \"#utility.yul\":2681:2716   */\n      swap1\n      pop\n        /* \"#utility.yul\":2626:2722   */\n      swap2\n      swap1\n      pop\n      jump\t// out\n        /* \"#utility.yul\":2728:2846   */\n    tag_107:\n        /* \"#utility.yul\":2815:2839   */\n      tag_156\n        /* \"#utility.yul\":2833:2838   */\n      dup2\n        /* \"#utility.yul\":2815:2839   */\n      tag_106\n      jump\t// in\n    tag_156:\n        /* \"#utility.yul\":2810:2813   */\n      dup3\n        /* \"#utility.yul\":2803:2840   */\n      mstore\n        /* \"#utility.yul\":2728:2846   */\n      pop\n      pop\n      jump\t// out\n        /* \"#utility.yul\":2852:3074   */\n    tag_23:\n        /* \"#utility.yul\":2945:2949   */\n      0x00\n        /* \"#utility.yul\":2983:2985   */\n      0x20\n        /* \"#utility.yul\":2972:2981   */\n      dup3\n        /* \"#utility.yul\":2968:2986   */\n      add\n        /* \"#utility.yul\":2960:2986   */\n      swap1\n      pop\n        /* \"#utility.yul\":2996:3067   */\n      tag_158\n        /* \"#utility.yul\":3064:3065   */\n      0x00\n        /* \"#utility.yul\":3053:3062   */\n      dup4\n        /* \"#utility.yul\":3049:3066   */\n      add\n        /* \"#utility.yul\":3040:3046   */\n      dup5\n        /* \"#utility.yul\":2996:3067   */\n      tag_107\n      jump\t// in\n    tag_158:\n        /* \"#utility.yul\":2852:3074   */\n      swap3\n      swap2\n      pop\n      pop\n      jump\t// out\n        /* \"#utility.yul\":3080:3302   */\n    tag_27:\n        /* \"#utility.yul\":3173:3177   */\n      0x00\n        /* \"#utility.yul\":3211:3213   */\n      0x20\n        /* \"#utility.yul\":3200:3209   */\n      dup3\n        /* \"#utility.yul\":3196:3214   */\n      add\n        /* \"#utility.yul\":3188:3214   */\n      swap1\n      pop\n        /* \"#utility.yul\":3224:3295   */\n      tag_160\n        /* \"#utility.yul\":3292:3293   */\n      0x00\n        /* \"#utility.yul\":3281:3290   */\n      dup4\n        /* \"#utility.yul\":3277:3294   */\n      add\n        /* \"#utility.yul\":3268:3274   */\n      dup5\n        /* \"#utility.yul\":3224:3295   */\n      tag_104\n      jump\t// in\n    tag_160:\n        /* \"#utility.yul\":3080:3302   */\n      swap3\n      swap2\n      pop\n      pop\n      jump\t// out\n        /* \"#utility.yul\":3308:3430   */\n    tag_108:\n        /* \"#utility.yul\":3381:3405   */\n      tag_162\n        /* \"#utility.yul\":3399:3404   */\n      dup2\n        /* \"#utility.yul\":3381:3405   */\n      tag_106\n      jump\t// in\n    tag_162:\n        /* \"#utility.yul\":3374:3379   */\n      dup2\n        /* \"#utility.yul\":3371:3406   */\n      eq\n        /* \"#utility.yul\":3361:3424   */\n      tag_163\n      jumpi\n        /* \"#utility.yul\":3420:3421   */\n      0x00\n        /* \"#utility.yul\":3417:3418   */\n      0x00\n        /* \"#utility.yul\":3410:3422   */\n      revert\n        /* \"#utility.yul\":3361:3424   */\n    tag_163:\n        /* \"#utility.yul\":3308:3430   */\n      pop\n      jump\t// out\n        /* \"#utility.yul\":3436:3575   */\n    tag_109:\n        /* \"#utility.yul\":3482:3487   */\n      0x00\n        /* \"#utility.yul\":3520:3526   */\n      dup2\n        /* \"#utility.yul\":3507:3527   */\n      calldataload\n        /* \"#utility.yul\":3498:3527   */\n      swap1\n      pop\n        /* \"#utility.yul\":3536:3569   */\n      tag_165\n        /* \"#utility.yul\":3563:3568   */\n      dup2\n        /* \"#utility.yul\":3536:3569   */\n      tag_108\n      jump\t// in\n    tag_165:\n        /* \"#utility.yul\":3436:3575   */\n      swap3\n      swap2\n      pop\n      pop\n      jump\t// out\n        /* \"#utility.yul\":3581:3910   */\n    tag_30:\n        /* \"#utility.yul\":3640:3646   */\n      0x00\n        /* \"#utility.yul\":3689:3691   */\n      0x20\n        /* \"#utility.yul\":3677:3686   */\n      dup3\n        /* \"#utility.yul\":3668:3675   */\n      dup5\n        /* \"#utility.yul\":3664:3687   */\n      sub\n        /* \"#utility.yul\":3660:3692   */\n      slt\n        /* \"#utility.yul\":3657:3776   */\n      iszero\n      tag_167\n      jumpi\n        /* \"#utility.yul\":3695:3774   */\n      tag_168\n      tag_94\n      jump\t// in\n    tag_168:\n        /* \"#utility.yul\":3657:3776   */\n    tag_167:\n        /* \"#utility.yul\":3815:3816   */\n      0x00\n        /* \"#utility.yul\":3840:3893   */\n      tag_169\n        /* \"#utility.yul\":3885:3892   */\n      dup5\n        /* \"#utility.yul\":3876:3882   */\n      dup3\n        /* \"#utility.yul\":3865:3874   */\n      dup6\n        /* \"#utility.yul\":3861:3883   */\n      add\n        /* \"#utility.yul\":3840:3893   */\n      tag_109\n      jump\t// in\n    tag_169:\n        /* \"#utility.yul\":3830:3893   */\n      swap2\n      pop\n        /* \"#utility.yul\":3786:3903   */\n      pop\n        /* \"#utility.yul\":3581:3910   */\n      swap3\n      swap2\n      pop\n      pop\n      jump\t// out\n        /* \"#utility.yul\":3916:4006   */\n    tag_110:\n        /* \"#utility.yul\":3950:3957   */\n      0x00\n        /* \"#utility.yul\":3993:3998   */\n      dup2\n        /* \"#utility.yul\":3986:3999   */\n      iszero\n        /* \"#utility.yul\":3979:4000   */\n      iszero\n        /* \"#utility.yul\":3968:4000   */\n      swap1\n      pop\n        /* \"#utility.yul\":3916:4006   */\n      swap2\n      swap1\n      pop\n      jump\t// out\n        /* \"#utility.yul\":4012:4121   */\n    tag_111:\n        /* \"#utility.yul\":4093:4114   */\n      tag_172\n        /* \"#utility.yul\":4108:4113   */\n      dup2\n        /* \"#utility.yul\":4093:4114   */\n      tag_110\n      jump\t// in\n    tag_172:\n        /* \"#utility.yul\":4088:4091   */\n      dup3\n        /* \"#utility.yul\":4081:4115   */\n      mstore\n        /* \"#utility.yul\":4012:4121   */\n      pop\n      pop\n      jump\t// out\n        /* \"#utility.yul\":4127:4545   */\n    tag_36:\n        /* \"#utility.yul\":4264:4268   */\n      0x00\n        /* \"#utility.yul\":4302:4304   */\n      0x60\n        /* \"#utility.yul\":4291:4300   */\n      dup3\n        /* \"#utility.yul\":4287:4305   */\n      add\n        /* \"#utility.yul\":4279:4305   */\n      swap1\n      pop\n        /* \"#utility.yul\":4315:4380   */\n      tag_174\n        /* \"#utility.yul\":4377:4378   */\n      0x00\n        /* \"#utility.yul\":4366:4375   */\n      dup4\n        /* \"#utility.yul\":4362:4379   */\n      add\n        /* \"#utility.yul\":4353:4359   */\n      dup7\n        /* \"#utility.yul\":4315:4380   */\n      tag_111\n      jump\t// in\n    tag_174:\n        /* \"#utility.yul\":4390:4456   */\n      tag_175\n        /* \"#utility.yul\":4452:4454   */\n      0x20\n        /* \"#utility.yul\":4441:4450   */\n      dup4\n        /* \"#utility.yul\":4437:4455   */\n      add\n        /* \"#utility.yul\":4428:4434   */\n      dup6\n        /* \"#utility.yul\":4390:4456   */\n      tag_111\n      jump\t// in\n    tag_175:\n        /* \"#utility.yul\":4466:4538   */\n      tag_176\n        /* \"#utility.yul\":4534:4536   */\n      0x40\n        /* \"#utility.yul\":4523:4532   */\n      dup4\n        /* \"#utility.yul\":4519:4537   */\n      add\n        /* \"#utility.yul\":4510:4516   */\n      dup5\n        /* \"#utility.yul\":4466:4538   */\n      tag_104\n      jump\t// in\n    tag_176:\n        /* \"#utility.yul\":4127:4545   */\n      swap5\n      swap4\n      pop\n      pop\n      pop\n      pop\n      jump\t// out\n        /* \"#utility.yul\":4551:4864   */\n    tag_40:\n        /* \"#utility.yul\":4664:4668   */\n      0x00\n        /* \"#utility.yul\":4702:4704   */\n      0x20\n        /* \"#utility.yul\":4691:4700   */\n      dup3\n        /* \"#utility.yul\":4687:4705   */\n      add\n        /* \"#utility.yul\":4679:4705   */\n      swap1\n      pop\n        /* \"#utility.yul\":4751:4760   */\n      dup2\n        /* \"#utility.yul\":4745:4749   */\n      dup2\n        /* \"#utility.yul\":4741:4761   */\n      sub\n        /* \"#utility.yul\":4737:4738   */\n      0x00\n        /* \"#utility.yul\":4726:4735   */\n      dup4\n        /* \"#utility.yul\":4722:4739   */\n      add\n        /* \"#utility.yul\":4715:4762   */\n      mstore\n        /* \"#utility.yul\":4779:4857   */\n      tag_178\n        /* \"#utility.yul\":4852:4856   */\n      dup2\n        /* \"#utility.yul\":4843:4849   */\n      dup5\n        /* \"#utility.yul\":4779:4857   */\n      tag_103\n      jump\t// in\n    tag_178:\n        /* \"#utility.yul\":4771:4857   */\n      swap1\n      pop\n        /* \"#utility.yul\":4551:4864   */\n      swap3\n      swap2\n      pop\n      pop\n      jump\t// out\n        /* \"#utility.yul\":4870:5043   */\n    tag_112:\n        /* \"#utility.yul\":5010:5035   */\n      0x4e6f7420617574686f72697a656420746f20766f74652e000000000000000000\n        /* \"#utility.yul\":5006:5007   */\n      0x00\n        /* \"#utility.yul\":4998:5004   */\n      dup3\n        /* \"#utility.yul\":4994:5008   */\n      add\n        /* \"#utility.yul\":4987:5036   */\n      mstore\n        /* \"#utility.yul\":4870:5043   */\n      pop\n      jump\t// out\n        /* \"#utility.yul\":5049:5415   */\n    tag_113:\n        /* \"#utility.yul\":5191:5194   */\n      0x00\n        /* \"#utility.yul\":5212:5279   */\n      tag_181\n        /* \"#utility.yul\":5276:5278   */\n      0x17\n        /* \"#utility.yul\":5271:5274   */\n      dup4\n        /* \"#utility.yul\":5212:5279   */\n      tag_100\n      jump\t// in\n    tag_181:\n        /* \"#utility.yul\":5205:5279   */\n      swap2\n      pop\n        /* \"#utility.yul\":5288:5381   */\n      tag_182\n        /* \"#utility.yul\":5377:5380   */\n      dup3\n        /* \"#utility.yul\":5288:5381   */\n      tag_112\n      jump\t// in\n    tag_182:\n        /* \"#utility.yul\":5406:5408   */\n      0x20\n        /* \"#utility.yul\":5401:5404   */\n      dup3\n        /* \"#utility.yul\":5397:5409   */\n      add\n        /* \"#utility.yul\":5390:5409   */\n      swap1\n      pop\n        /* \"#utility.yul\":5049:5415   */\n      swap2\n      swap1\n      pop\n      jump\t// out\n        /* \"#utility.yul\":5421:5840   */\n    tag_44:\n        /* \"#utility.yul\":5587:5591   */\n      0x00\n        /* \"#utility.yul\":5625:5627   */\n      0x20\n        /* \"#utility.yul\":5614:5623   */\n      dup3\n        /* \"#utility.yul\":5610:5628   */\n      add\n        /* \"#utility.yul\":5602:5628   */\n      swap1\n      pop\n        /* \"#utility.yul\":5674:5683   */\n      dup2\n        /* \"#utility.yul\":5668:5672   */\n      dup2\n        /* \"#utility.yul\":5664:5684   */\n      sub\n        /* \"#utility.yul\":5660:5661   */\n      0x00\n        /* \"#utility.yul\":5649:5658   */\n      dup4\n        /* \"#utility.yul\":5645:5662   */\n      add\n        /* \"#utility.yul\":5638:5685   */\n      mstore\n        /* \"#utility.yul\":5702:5833   */\n      tag_184\n        /* \"#utility.yul\":5828:5832   */\n      dup2\n        /* \"#utility.yul\":5702:5833   */\n      tag_113\n      jump\t// in\n    tag_184:\n        /* \"#utility.yul\":5694:5833   */\n      swap1\n      pop\n        /* \"#utility.yul\":5421:5840   */\n      swap2\n      swap1\n      pop\n      jump\t// out\n        /* \"#utility.yul\":5846:6019   */\n    tag_114:\n        /* \"#utility.yul\":5986:6011   */\n      0x596f75206861766520616c726561647920766f74656421000000000000000000\n        /* \"#utility.yul\":5982:5983   */\n      0x00\n        /* \"#utility.yul\":5974:5980   */\n      dup3\n        /* \"#utility.yul\":5970:5984   */\n      add\n        /* \"#utility.yul\":5963:6012   */\n      mstore\n        /* \"#utility.yul\":5846:6019   */\n      pop\n      jump\t// out\n        /* \"#utility.yul\":6025:6391   */\n    tag_115:\n        /* \"#utility.yul\":6167:6170   */\n      0x00\n        /* \"#utility.yul\":6188:6255   */\n      tag_187\n        /* \"#utility.yul\":6252:6254   */\n      0x17\n        /* \"#utility.yul\":6247:6250   */\n      dup4\n        /* \"#utility.yul\":6188:6255   */\n      tag_100\n      jump\t// in\n    tag_187:\n        /* \"#utility.yul\":6181:6255   */\n      swap2\n      pop\n        /* \"#utility.yul\":6264:6357   */\n      tag_188\n        /* \"#utility.yul\":6353:6356   */\n      dup3\n        /* \"#utility.yul\":6264:6357   */\n      tag_114\n      jump\t// in\n    tag_188:\n        /* \"#utility.yul\":6382:6384   */\n      0x20\n        /* \"#utility.yul\":6377:6380   */\n      dup3\n        /* \"#utility.yul\":6373:6385   */\n      add\n        /* \"#utility.yul\":6366:6385   */\n      swap1\n      pop\n        /* \"#utility.yul\":6025:6391   */\n      swap2\n      swap1\n      pop\n      jump\t// out\n        /* \"#utility.yul\":6397:6816   */\n    tag_47:\n        /* \"#utility.yul\":6563:6567   */\n      0x00\n        /* \"#utility.yul\":6601:6603   */\n      0x20\n        /* \"#utility.yul\":6590:6599   */\n      dup3\n        /* \"#utility.yul\":6586:6604   */\n      add\n        /* \"#utility.yul\":6578:6604   */\n      swap1\n      pop\n        /* \"#utility.yul\":6650:6659   */\n      dup2\n        /* \"#utility.yul\":6644:6648   */\n      dup2\n        /* \"#utility.yul\":6640:6660   */\n      sub\n        /* \"#utility.yul\":6636:6637   */\n      0x00\n        /* \"#utility.yul\":6625:6634   */\n      dup4\n        /* \"#utility.yul\":6621:6638   */\n      add\n        /* \"#utility.yul\":6614:6661   */\n      mstore\n        /* \"#utility.yul\":6678:6809   */\n      tag_190\n        /* \"#utility.yul\":6804:6808   */\n      dup2\n        /* \"#utility.yul\":6678:6809   */\n      tag_115\n      jump\t// in\n    tag_190:\n        /* \"#utility.yul\":6670:6809   */\n      swap1\n      pop\n        /* \"#utility.yul\":6397:6816   */\n      swap2\n      swap1\n      pop\n      jump\t// out\n        /* \"#utility.yul\":6822:7002   */\n    tag_50:\n        /* \"#utility.yul\":6870:6947   */\n      0x4e487b7100000000000000000000000000000000000000000000000000000000\n        /* \"#utility.yul\":6867:6868   */\n      0x00\n        /* \"#utility.yul\":6860:6948   */\n      mstore\n        /* \"#utility.yul\":6967:6971   */\n      0x32\n        /* \"#utility.yul\":6964:6965   */\n      0x04\n        /* \"#utility.yul\":6957:6972   */\n      mstore\n        /* \"#utility.yul\":6991:6995   */\n      0x24\n        /* \"#utility.yul\":6988:6989   */\n      0x00\n        /* \"#utility.yul\":6981:6996   */\n      revert\n        /* \"#utility.yul\":7008:7188   */\n    tag_116:\n        /* \"#utility.yul\":7056:7133   */\n      0x4e487b7100000000000000000000000000000000000000000000000000000000\n        /* \"#utility.yul\":7053:7054   */\n      0x00\n        /* \"#utility.yul\":7046:7134   */\n      mstore\n        /* \"#utility.yul\":7153:7157   */\n      0x11\n        /* \"#utility.yul\":7150:7151   */\n      0x04\n        /* \"#utility.yul\":7143:7158   */\n      mstore\n        /* \"#utility.yul\":7177:7181   */\n      0x24\n        /* \"#utility.yul\":7174:7175   */\n      0x00\n        /* \"#utility.yul\":7167:7182   */\n      revert\n        /* \"#utility.yul\":7194:7385   */\n    tag_53:\n        /* \"#utility.yul\":7234:7237   */\n      0x00\n        /* \"#utility.yul\":7253:7273   */\n      tag_194\n        /* \"#utility.yul\":7271:7272   */\n      dup3\n        /* \"#utility.yul\":7253:7273   */\n      tag_96\n      jump\t// in\n    tag_194:\n        /* \"#utility.yul\":7248:7273   */\n      swap2\n      pop\n        /* \"#utility.yul\":7287:7307   */\n      tag_195\n        /* \"#utility.yul\":7305:7306   */\n      dup4\n        /* \"#utility.yul\":7287:7307   */\n      tag_96\n      jump\t// in\n    tag_195:\n        /* \"#utility.yul\":7282:7307   */\n      swap3\n      pop\n        /* \"#utility.yul\":7330:7331   */\n      dup3\n        /* \"#utility.yul\":7327:7328   */\n      dup3\n        /* \"#utility.yul\":7323:7332   */\n      add\n        /* \"#utility.yul\":7316:7332   */\n      swap1\n      pop\n        /* \"#utility.yul\":7351:7354   */\n      dup1\n        /* \"#utility.yul\":7348:7349   */\n      dup3\n        /* \"#utility.yul\":7345:7355   */\n      gt\n        /* \"#utility.yul\":7342:7378   */\n      iszero\n      tag_196\n      jumpi\n        /* \"#utility.yul\":7358:7376   */\n      tag_197\n      tag_116\n      jump\t// in\n    tag_197:\n        /* \"#utility.yul\":7342:7378   */\n    tag_196:\n        /* \"#utility.yul\":7194:7385   */\n      swap3\n      swap2\n      pop\n      pop\n      jump\t// out\n        /* \"#utility.yul\":7391:7571   */\n    tag_117:\n        /* \"#utility.yul\":7439:7516   */\n      0x4e487b7100000000000000000000000000000000000000000000000000000000\n        /* \"#utility.yul\":7436:7437   */\n      0x00\n        /* \"#utility.yul\":7429:7517   */\n      mstore\n        /* \"#utility.yul\":7536:7540   */\n      0x22\n        /* \"#utility.yul\":7533:7534   */\n      0x04\n        /* \"#utility.yul\":7526:7541   */\n      mstore\n        /* \"#utility.yul\":7560:7564   */\n      0x24\n        /* \"#utility.yul\":7557:7558   */\n      0x00\n        /* \"#utility.yul\":7550:7565   */\n      revert\n        /* \"#utility.yul\":7577:7897   */\n    tag_57:\n        /* \"#utility.yul\":7621:7627   */\n      0x00\n        /* \"#utility.yul\":7658:7659   */\n      0x02\n        /* \"#utility.yul\":7652:7656   */\n      dup3\n        /* \"#utility.yul\":7648:7660   */\n      div\n        /* \"#utility.yul\":7638:7660   */\n      swap1\n      pop\n        /* \"#utility.yul\":7705:7706   */\n      0x01\n        /* \"#utility.yul\":7699:7703   */\n      dup3\n        /* \"#utility.yul\":7695:7707   */\n      and\n        /* \"#utility.yul\":7726:7744   */\n      dup1\n        /* \"#utility.yul\":7716:7797   */\n      tag_200\n      jumpi\n        /* \"#utility.yul\":7782:7786   */\n      0x7f\n        /* \"#utility.yul\":7774:7780   */\n      dup3\n        /* \"#utility.yul\":7770:7787   */\n      and\n        /* \"#utility.yul\":7760:7787   */\n      swap2\n      pop\n        /* \"#utility.yul\":7716:7797   */\n    tag_200:\n        /* \"#utility.yul\":7844:7846   */\n      0x20\n        /* \"#utility.yul\":7836:7842   */\n      dup3\n        /* \"#utility.yul\":7833:7847   */\n      lt\n        /* \"#utility.yul\":7813:7831   */\n      dup2\n        /* \"#utility.yul\":7810:7848   */\n      sub\n        /* \"#utility.yul\":7807:7891   */\n      tag_201\n      jumpi\n        /* \"#utility.yul\":7863:7881   */\n      tag_202\n      tag_117\n      jump\t// in\n    tag_202:\n        /* \"#utility.yul\":7807:7891   */\n    tag_201:\n        /* \"#utility.yul\":7628:7897   */\n      pop\n        /* \"#utility.yul\":7577:7897   */\n      swap2\n      swap1\n      pop\n      jump\t// out\n        /* \"#utility.yul\":7903:8084   */\n    tag_118:\n        /* \"#utility.yul\":8043:8076   */\n      0x4f6e6c79206368616972706572736f6e2063616e20617574686f72697a652e00\n        /* \"#utility.yul\":8039:8040   */\n      0x00\n        /* \"#utility.yul\":8031:8037   */\n      dup3\n        /* \"#utility.yul\":8027:8041   */\n      add\n        /* \"#utility.yul\":8020:8077   */\n      mstore\n        /* \"#utility.yul\":7903:8084   */\n      pop\n      jump\t// out\n        /* \"#utility.yul\":8090:8456   */\n    tag_119:\n        /* \"#utility.yul\":8232:8235   */\n      0x00\n        /* \"#utility.yul\":8253:8320   */\n      tag_205\n        /* \"#utility.yul\":8317:8319   */\n      0x1f\n        /* \"#utility.yul\":8312:8315   */\n      dup4\n        /* \"#utility.yul\":8253:8320   */\n      tag_100\n      jump\t// in\n    tag_205:\n        /* \"#utility.yul\":8246:8320   */\n      swap2\n      pop\n        /* \"#utility.yul\":8329:8422   */\n      tag_206\n        /* \"#utility.yul\":8418:8421   */\n      dup3\n        /* \"#utility.yul\":8329:8422   */\n      tag_118\n      jump\t// in\n    tag_206:\n        /* \"#utility.yul\":8447:8449   */\n      0x20\n        /* \"#utility.yul\":8442:8445   */\n      dup3\n        /* \"#utility.yul\":8438:8450   */\n      add\n        /* \"#utility.yul\":8431:8450   */\n      swap1\n      pop\n        /* \"#utility.yul\":8090:8456   */\n      swap2\n      swap1\n      pop\n      jump\t// out\n        /* \"#utility.yul\":8462:8881   */\n    tag_76:\n        /* \"#utility.yul\":8628:8632   */\n      0x00\n        /* \"#utility.yul\":8666:8668   */\n      0x20\n        /* \"#utility.yul\":8655:8664   */\n      dup3\n        /* \"#utility.yul\":8651:8669   */\n      add\n        /* \"#utility.yul\":8643:8669   */\n      swap1\n      pop\n        /* \"#utility.yul\":8715:8724   */\n      dup2\n        /* \"#utility.yul\":8709:8713   */\n      dup2\n        /* \"#utility.yul\":8705:8725   */\n      sub\n        /* \"#utility.yul\":8701:8702   */\n      0x00\n        /* \"#utility.yul\":8690:8699   */\n      dup4\n        /* \"#utility.yul\":8686:8703   */\n      add\n        /* \"#utility.yul\":8679:8726   */\n      mstore\n        /* \"#utility.yul\":8743:8874   */\n      tag_208\n        /* \"#utility.yul\":8869:8873   */\n      dup2\n        /* \"#utility.yul\":8743:8874   */\n      tag_119\n      jump\t// in\n    tag_208:\n        /* \"#utility.yul\":8735:8874   */\n      swap1\n      pop\n        /* \"#utility.yul\":8462:8881   */\n      swap2\n      swap1\n      pop\n      jump\t// out\n        /* \"#utility.yul\":8887:9051   */\n    tag_120:\n        /* \"#utility.yul\":9027:9043   */\n      0x416c726561647920766f7465642e000000000000000000000000000000000000\n        /* \"#utility.yul\":9023:9024   */\n      0x00\n        /* \"#utility.yul\":9015:9021   */\n      dup3\n        /* \"#utility.yul\":9011:9025   */\n      add\n        /* \"#utility.yul\":9004:9044   */\n      mstore\n        /* \"#utility.yul\":8887:9051   */\n      pop\n      jump\t// out\n        /* \"#utility.yul\":9057:9423   */\n    tag_121:\n        /* \"#utility.yul\":9199:9202   */\n      0x00\n        /* \"#utility.yul\":9220:9287   */\n      tag_211\n        /* \"#utility.yul\":9284:9286   */\n      0x0e\n        /* \"#utility.yul\":9279:9282   */\n      dup4\n        /* \"#utility.yul\":9220:9287   */\n      tag_100\n      jump\t// in\n    tag_211:\n        /* \"#utility.yul\":9213:9287   */\n      swap2\n      pop\n        /* \"#utility.yul\":9296:9389   */\n      tag_212\n        /* \"#utility.yul\":9385:9388   */\n      dup3\n        /* \"#utility.yul\":9296:9389   */\n      tag_120\n      jump\t// in\n    tag_212:\n        /* \"#utility.yul\":9414:9416   */\n      0x20\n        /* \"#utility.yul\":9409:9412   */\n      dup3\n        /* \"#utility.yul\":9405:9417   */\n      add\n        /* \"#utility.yul\":9398:9417   */\n      swap1\n      pop\n        /* \"#utility.yul\":9057:9423   */\n      swap2\n      swap1\n      pop\n      jump\t// out\n        /* \"#utility.yul\":9429:9848   */\n    tag_79:\n        /* \"#utility.yul\":9595:9599   */\n      0x00\n        /* \"#utility.yul\":9633:9635   */\n      0x20\n        /* \"#utility.yul\":9622:9631   */\n      dup3\n        /* \"#utility.yul\":9618:9636   */\n      add\n        /* \"#utility.yul\":9610:9636   */\n      swap1\n      pop\n        /* \"#utility.yul\":9682:9691   */\n      dup2\n        /* \"#utility.yul\":9676:9680   */\n      dup2\n        /* \"#utility.yul\":9672:9692   */\n      sub\n        /* \"#utility.yul\":9668:9669   */\n      0x00\n        /* \"#utility.yul\":9657:9666   */\n      dup4\n        /* \"#utility.yul\":9653:9670   */\n      add\n        /* \"#utility.yul\":9646:9693   */\n      mstore\n        /* \"#utility.yul\":9710:9841   */\n      tag_214\n        /* \"#utility.yul\":9836:9840   */\n      dup2\n        /* \"#utility.yul\":9710:9841   */\n      tag_121\n      jump\t// in\n    tag_214:\n        /* \"#utility.yul\":9702:9841   */\n      swap1\n      pop\n        /* \"#utility.yul\":9429:9848   */\n      swap2\n      swap1\n      pop\n      jump\t// out\n        /* \"#utility.yul\":9854:10023   */\n    tag_122:\n        /* \"#utility.yul\":9994:10015   */\n      0x416c726561647920617574686f72697a65642e00000000000000000000000000\n        /* \"#utility.yul\":9990:9991   */\n      0x00\n        /* \"#utility.yul\":9982:9988   */\n      dup3\n        /* \"#utility.yul\":9978:9992   */\n      add\n        /* \"#utility.yul\":9971:10016   */\n      mstore\n        /* \"#utility.yul\":9854:10023   */\n      pop\n      jump\t// out\n        /* \"#utility.yul\":10029:10395   */\n    tag_123:\n        /* \"#utility.yul\":10171:10174   */\n      0x00\n        /* \"#utility.yul\":10192:10259   */\n      tag_217\n        /* \"#utility.yul\":10256:10258   */\n      0x13\n        /* \"#utility.yul\":10251:10254   */\n      dup4\n        /* \"#utility.yul\":10192:10259   */\n      tag_100\n      jump\t// in\n    tag_217:\n        /* \"#utility.yul\":10185:10259   */\n      swap2\n      pop\n        /* \"#utility.yul\":10268:10361   */\n      tag_218\n        /* \"#utility.yul\":10357:10360   */\n      dup3\n        /* \"#utility.yul\":10268:10361   */\n      tag_122\n      jump\t// in\n    tag_218:\n        /* \"#utility.yul\":10386:10388   */\n      0x20\n        /* \"#utility.yul\":10381:10384   */\n      dup3\n        /* \"#utility.yul\":10377:10389   */\n      add\n        /* \"#utility.yul\":10370:10389   */\n      swap1\n      pop\n        /* \"#utility.yul\":10029:10395   */\n      swap2\n      swap1\n      pop\n      jump\t// out\n        /* \"#utility.yul\":10401:10820   */\n    tag_82:\n        /* \"#utility.yul\":10567:10571   */\n      0x00\n        /* \"#utility.yul\":10605:10607   */\n      0x20\n        /* \"#utility.yul\":10594:10603   */\n      dup3\n        /* \"#utility.yul\":10590:10608   */\n      add\n        /* \"#utility.yul\":10582:10608   */\n      swap1\n      pop\n        /* \"#utility.yul\":10654:10663   */\n      dup2\n        /* \"#utility.yul\":10648:10652   */\n      dup2\n        /* \"#utility.yul\":10644:10664   */\n      sub\n        /* \"#utility.yul\":10640:10641   */\n      0x00\n        /* \"#utility.yul\":10629:10638   */\n      dup4\n        /* \"#utility.yul\":10625:10642   */\n      add\n        /* \"#utility.yul\":10618:10665   */\n      mstore\n        /* \"#utility.yul\":10682:10813   */\n      tag_220\n        /* \"#utility.yul\":10808:10812   */\n      dup2\n        /* \"#utility.yul\":10682:10813   */\n      tag_123\n      jump\t// in\n    tag_220:\n        /* \"#utility.yul\":10674:10813   */\n      swap1\n      pop\n        /* \"#utility.yul\":10401:10820   */\n      swap2\n      swap1\n      pop\n      jump\t// out\n\n    auxdata: 0xa2646970667358221220457fb5f0afb0385148c93f97fa39eb430dfcd2a0d3792f9f4240f2e2d5307dcb64736f6c63430008220033\n}\n",
				"bytecode": {
					"linkReferences": {},
					"object": "608060405234801561000f575f5ffd5b506040516113c63803806113c683398181016040528101906100319190610338565b335f5f6101000a81548173ffffffffffffffffffffffffffffffffffffffff021916908373ffffffffffffffffffffffffffffffffffffffff1602179055505f5f90505b8151811015610102576002604051806040016040528084848151811061009e5761009d61037f565b5b602002602001015181526020015f815250908060018154018082558091505060019003905f5260205f2090600202015f909190919091505f820151815f0190816100e891906105cd565b506020820151816001015550508080600101915050610075565b505061069c565b5f604051905090565b5f5ffd5b5f5ffd5b5f5ffd5b5f601f19601f8301169050919050565b7f4e487b71000000000000000000000000000000000000000000000000000000005f52604160045260245ffd5b6101648261011e565b810181811067ffffffffffffffff821117156101835761018261012e565b5b80604052505050565b5f610195610109565b90506101a1828261015b565b919050565b5f67ffffffffffffffff8211156101c0576101bf61012e565b5b602082029050602081019050919050565b5f5ffd5b5f5ffd5b5f67ffffffffffffffff8211156101f3576101f261012e565b5b6101fc8261011e565b9050602081019050919050565b8281835e5f83830152505050565b5f610229610224846101d9565b61018c565b905082815260208101848484011115610245576102446101d5565b5b610250848285610209565b509392505050565b5f82601f83011261026c5761026b61011a565b5b815161027c848260208601610217565b91505092915050565b5f610297610292846101a6565b61018c565b905080838252602082019050602084028301858111156102ba576102b96101d1565b5b835b8181101561030157805167ffffffffffffffff8111156102df576102de61011a565b5b8086016102ec8982610258565b855260208501945050506020810190506102bc565b5050509392505050565b5f82601f83011261031f5761031e61011a565b5b815161032f848260208601610285565b91505092915050565b5f6020828403121561034d5761034c610112565b5b5f82015167ffffffffffffffff81111561036a57610369610116565b5b6103768482850161030b565b91505092915050565b7f4e487b71000000000000000000000000000000000000000000000000000000005f52603260045260245ffd5b5f81519050919050565b7f4e487b71000000000000000000000000000000000000000000000000000000005f52602260045260245ffd5b5f60028204905060018216806103fa57607f821691505b60208210810361040d5761040c6103b6565b5b50919050565b5f819050815f5260205f209050919050565b5f6020601f8301049050919050565b5f82821b905092915050565b5f6008830261046f7fffffffffffffffffffffffffffffffffffffffffffffffffffffffffffffffff82610434565b6104798683610434565b95508019841693508086168417925050509392505050565b5f819050919050565b5f819050919050565b5f6104bd6104b86104b384610491565b61049a565b610491565b9050919050565b5f819050919050565b6104d6836104a3565b6104ea6104e2826104c4565b848454610440565b825550505050565b5f5f905090565b6105016104f2565b61050c8184846104cd565b505050565b5f5b82811015610532576105275f8284016104f9565b600181019050610513565b505050565b601f82111561058557828211156105845761055181610413565b61055a83610425565b61056385610425565b6020861015610570575f90505b80830161057f82840382610511565b505050505b5b505050565b5f82821c905092915050565b5f6105a55f198460080261058a565b1980831691505092915050565b5f6105bd8383610596565b9150826002028217905092915050565b6105d6826103ac565b67ffffffffffffffff8111156105ef576105ee61012e565b5b6105f982546103e3565b610604828285610537565b5f60209050601f831160018114610635575f8415610623578287015190505b61062d85826105b2565b865550610694565b601f19841661064386610413565b5f5b8281101561066a57848901518255600182019150602085019450602081019050610645565b868310156106875784890151610683601f891682610596565b8355505b6001600288020188555050505b505050505050565b610d1d806106a95f395ff3fe608060405234801561000f575f5ffd5b506004361061007b575f3560e01c8063609ff1bd11610059578063609ff1bd146100ea5780639e7b8d6114610108578063a3ec138d14610124578063e2ba53f0146101565761007b565b80630121b93f1461007f578063013cf08b1461009b5780632e4176cf146100cc575b5f5ffd5b610099600480360381019061009491906107e8565b610174565b005b6100b560048036038101906100b091906107e8565b610365565b6040516100c3929190610892565b60405180910390f35b6100d461041a565b6040516100e191906108ff565b60405180910390f35b6100f261043e565b6040516100ff9190610918565b60405180910390f35b610122600480360381019061011d919061095b565b6104bc565b005b61013e6004803603810190610139919061095b565b6106bc565b60405161014d939291906109a0565b60405180910390f35b61015e6106fa565b60405161016b91906109d5565b60405180910390f35b60015f3373ffffffffffffffffffffffffffffffffffffffff1673ffffffffffffffffffffffffffffffffffffffff1681526020019081526020015f205f015f9054906101000a900460ff166101ff576040517f08c379a00000000000000000000000000000000000000000000000000000000081526004016101f690610a3f565b60405180910390fd5b60015f3373ffffffffffffffffffffffffffffffffffffffff1673ffffffffffffffffffffffffffffffffffffffff1681526020019081526020015f205f0160019054906101000a900460ff161561028c576040517f08c379a000000000000000000000000000000000000000000000000000000000815260040161028390610aa7565b60405180910390fd5b6001805f3373ffffffffffffffffffffffffffffffffffffffff1673ffffffffffffffffffffffffffffffffffffffff1681526020019081526020015f205f0160016101000a81548160ff0219169083151502179055508060015f3373ffffffffffffffffffffffffffffffffffffffff1673ffffffffffffffffffffffffffffffffffffffff1681526020019081526020015f206001018190555060016002828154811061033e5761033d610ac5565b5b905f5260205f2090600202016001015f82825461035b9190610b1f565b9250508190555050565b60028181548110610374575f80fd5b905f5260205f2090600202015f91509050805f01805461039390610b7f565b80601f01602080910402602001604051908101604052809291908181526020018280546103bf90610b7f565b801561040a5780601f106103e15761010080835404028352916020019161040a565b820191905f5260205f20905b8154815290600101906020018083116103ed57829003601f168201915b5050505050908060010154905082565b5f5f9054906101000a900473ffffffffffffffffffffffffffffffffffffffff1681565b5f5f5f90505f5f90505b6002805490508110156104b757816002828154811061046a57610469610ac5565b5b905f5260205f2090600202016001015411156104aa576002818154811061049457610493610ac5565b5b905f5260205f2090600202016001015491508092505b8080600101915050610448565b505090565b5f5f9054906101000a900473ffffffffffffffffffffffffffffffffffffffff1673ffffffffffffffffffffffffffffffffffffffff163373ffffffffffffffffffffffffffffffffffffffff161461054a576040517f08c379a000000000000000000000000000000000000000000000000000000000815260040161054190610bf9565b60405180910390fd5b60015f8273ffffffffffffffffffffffffffffffffffffffff1673ffffffffffffffffffffffffffffffffffffffff1681526020019081526020015f205f0160019054906101000a900460ff16156105d7576040517f08c379a00000000000000000000000000000000000000000000000000000000081526004016105ce90610c61565b60405180910390fd5b60015f8273ffffffffffffffffffffffffffffffffffffffff1673ffffffffffffffffffffffffffffffffffffffff1681526020019081526020015f205f015f9054906101000a900460ff1615610663576040517f08c379a000000000000000000000000000000000000000000000000000000000815260040161065a90610cc9565b60405180910390fd5b6001805f8373ffffffffffffffffffffffffffffffffffffffff1673ffffffffffffffffffffffffffffffffffffffff1681526020019081526020015f205f015f6101000a81548160ff02191690831515021790555050565b6001602052805f5260405f205f91509050805f015f9054906101000a900460ff1690805f0160019054906101000a900460ff16908060010154905083565b6060600261070661043e565b8154811061071757610716610ac5565b5b905f5260205f2090600202015f01805461073090610b7f565b80601f016020809104026020016040519081016040528092919081815260200182805461075c90610b7f565b80156107a75780601f1061077e576101008083540402835291602001916107a7565b820191905f5260205f20905b81548152906001019060200180831161078a57829003601f168201915b5050505050905090565b5f5ffd5b5f819050919050565b6107c7816107b5565b81146107d1575f5ffd5b50565b5f813590506107e2816107be565b92915050565b5f602082840312156107fd576107fc6107b1565b5b5f61080a848285016107d4565b91505092915050565b5f81519050919050565b5f82825260208201905092915050565b8281835e5f83830152505050565b5f601f19601f8301169050919050565b5f61085582610813565b61085f818561081d565b935061086f81856020860161082d565b6108788161083b565b840191505092915050565b61088c816107b5565b82525050565b5f6040820190508181035f8301526108aa818561084b565b90506108b96020830184610883565b9392505050565b5f73ffffffffffffffffffffffffffffffffffffffff82169050919050565b5f6108e9826108c0565b9050919050565b6108f9816108df565b82525050565b5f6020820190506109125f8301846108f0565b92915050565b5f60208201905061092b5f830184610883565b92915050565b61093a816108df565b8114610944575f5ffd5b50565b5f8135905061095581610931565b92915050565b5f602082840312156109705761096f6107b1565b5b5f61097d84828501610947565b91505092915050565b5f8115159050919050565b61099a81610986565b82525050565b5f6060820190506109b35f830186610991565b6109c06020830185610991565b6109cd6040830184610883565b949350505050565b5f6020820190508181035f8301526109ed818461084b565b905092915050565b7f4e6f7420617574686f72697a656420746f20766f74652e0000000000000000005f82015250565b5f610a2960178361081d565b9150610a34826109f5565b602082019050919050565b5f6020820190508181035f830152610a5681610a1d565b9050919050565b7f596f75206861766520616c726561647920766f746564210000000000000000005f82015250565b5f610a9160178361081d565b9150610a9c82610a5d565b602082019050919050565b5f6020820190508181035f830152610abe81610a85565b9050919050565b7f4e487b71000000000000000000000000000000000000000000000000000000005f52603260045260245ffd5b7f4e487b71000000000000000000000000000000000000000000000000000000005f52601160045260245ffd5b5f610b29826107b5565b9150610b34836107b5565b9250828201905080821115610b4c57610b4b610af2565b5b92915050565b7f4e487b71000000000000000000000000000000000000000000000000000000005f52602260045260245ffd5b5f6002820490506001821680610b9657607f821691505b602082108103610ba957610ba8610b52565b5b50919050565b7f4f6e6c79206368616972706572736f6e2063616e20617574686f72697a652e005f82015250565b5f610be3601f8361081d565b9150610bee82610baf565b602082019050919050565b5f6020820190508181035f830152610c1081610bd7565b9050919050565b7f416c726561647920766f7465642e0000000000000000000000000000000000005f82015250565b5f610c4b600e8361081d565b9150610c5682610c17565b602082019050919050565b5f6020820190508181035f830152610c7881610c3f565b9050919050565b7f416c726561647920617574686f72697a65642e000000000000000000000000005f82015250565b5f610cb360138361081d565b9150610cbe82610c7f565b602082019050919050565b5f6020820190508181035f830152610ce081610ca7565b905091905056fea2646970667358221220457fb5f0afb0385148c93f97fa39eb430dfcd2a0d3792f9f4240f2e2d5307dcb64736f6c63430008220033",
					"opcodes": "PUSH1 0x80 PUSH1 0x40 MSTORE CALLVALUE DUP1 ISZERO PUSH2 0xF JUMPI PUSH0 PUSH0 REVERT JUMPDEST POP PUSH1 0x40 MLOAD PUSH2 0x13C6 CODESIZE SUB DUP1 PUSH2 0x13C6 DUP4 CODECOPY DUP2 DUP2 ADD PUSH1 0x40 MSTORE DUP2 ADD SWAP1 PUSH2 0x31 SWAP2 SWAP1 PUSH2 0x338 JUMP JUMPDEST CALLER PUSH0 PUSH0 PUSH2 0x100 EXP DUP2 SLOAD DUP2 PUSH20 0xFFFFFFFFFFFFFFFFFFFFFFFFFFFFFFFFFFFFFFFF MUL NOT AND SWAP1 DUP4 PUSH20 0xFFFFFFFFFFFFFFFFFFFFFFFFFFFFFFFFFFFFFFFF AND MUL OR SWAP1 SSTORE POP PUSH0 PUSH0 SWAP1 POP JUMPDEST DUP2 MLOAD DUP2 LT ISZERO PUSH2 0x102 JUMPI PUSH1 0x2 PUSH1 0x40 MLOAD DUP1 PUSH1 0x40 ADD PUSH1 0x40 MSTORE DUP1 DUP5 DUP5 DUP2 MLOAD DUP2 LT PUSH2 0x9E JUMPI PUSH2 0x9D PUSH2 0x37F JUMP JUMPDEST JUMPDEST PUSH1 0x20 MUL PUSH1 0x20 ADD ADD MLOAD DUP2 MSTORE PUSH1 0x20 ADD PUSH0 DUP2 MSTORE POP SWAP1 DUP1 PUSH1 0x1 DUP2 SLOAD ADD DUP1 DUP3 SSTORE DUP1 SWAP2 POP POP PUSH1 0x1 SWAP1 SUB SWAP1 PUSH0 MSTORE PUSH1 0x20 PUSH0 KECCAK256 SWAP1 PUSH1 0x2 MUL ADD PUSH0 SWAP1 SWAP2 SWAP1 SWAP2 SWAP1 SWAP2 POP PUSH0 DUP3 ADD MLOAD DUP2 PUSH0 ADD SWAP1 DUP2 PUSH2 0xE8 SWAP2 SWAP1 PUSH2 0x5CD JUMP JUMPDEST POP PUSH1 0x20 DUP3 ADD MLOAD DUP2 PUSH1 0x1 ADD SSTORE POP POP DUP1 DUP1 PUSH1 0x1 ADD SWAP2 POP POP PUSH2 0x75 JUMP JUMPDEST POP POP PUSH2 0x69C JUMP JUMPDEST PUSH0 PUSH1 0x40 MLOAD SWAP1 POP SWAP1 JUMP JUMPDEST PUSH0 PUSH0 REVERT JUMPDEST PUSH0 PUSH0 REVERT JUMPDEST PUSH0 PUSH0 REVERT JUMPDEST PUSH0 PUSH1 0x1F NOT PUSH1 0x1F DUP4 ADD AND SWAP1 POP SWAP2 SWAP1 POP JUMP JUMPDEST PUSH32 0x4E487B7100000000000000000000000000000000000000000000000000000000 PUSH0 MSTORE PUSH1 0x41 PUSH1 0x4 MSTORE PUSH1 0x24 PUSH0 REVERT JUMPDEST PUSH2 0x164 DUP3 PUSH2 0x11E JUMP JUMPDEST DUP2 ADD DUP2 DUP2 LT PUSH8 0xFFFFFFFFFFFFFFFF DUP3 GT OR ISZERO PUSH2 0x183 JUMPI PUSH2 0x182 PUSH2 0x12E JUMP JUMPDEST JUMPDEST DUP1 PUSH1 0x40 MSTORE POP POP POP JUMP JUMPDEST PUSH0 PUSH2 0x195 PUSH2 0x109 JUMP JUMPDEST SWAP1 POP PUSH2 0x1A1 DUP3 DUP3 PUSH2 0x15B JUMP JUMPDEST SWAP2 SWAP1 POP JUMP JUMPDEST PUSH0 PUSH8 0xFFFFFFFFFFFFFFFF DUP3 GT ISZERO PUSH2 0x1C0 JUMPI PUSH2 0x1BF PUSH2 0x12E JUMP JUMPDEST JUMPDEST PUSH1 0x20 DUP3 MUL SWAP1 POP PUSH1 0x20 DUP2 ADD SWAP1 POP SWAP2 SWAP1 POP JUMP JUMPDEST PUSH0 PUSH0 REVERT JUMPDEST PUSH0 PUSH0 REVERT JUMPDEST PUSH0 PUSH8 0xFFFFFFFFFFFFFFFF DUP3 GT ISZERO PUSH2 0x1F3 JUMPI PUSH2 0x1F2 PUSH2 0x12E JUMP JUMPDEST JUMPDEST PUSH2 0x1FC DUP3 PUSH2 0x11E JUMP JUMPDEST SWAP1 POP PUSH1 0x20 DUP2 ADD SWAP1 POP SWAP2 SWAP1 POP JUMP JUMPDEST DUP3 DUP2 DUP4 MCOPY PUSH0 DUP4 DUP4 ADD MSTORE POP POP POP JUMP JUMPDEST PUSH0 PUSH2 0x229 PUSH2 0x224 DUP5 PUSH2 0x1D9 JUMP JUMPDEST PUSH2 0x18C JUMP JUMPDEST SWAP1 POP DUP3 DUP2 MSTORE PUSH1 0x20 DUP2 ADD DUP5 DUP5 DUP5 ADD GT ISZERO PUSH2 0x245 JUMPI PUSH2 0x244 PUSH2 0x1D5 JUMP JUMPDEST JUMPDEST PUSH2 0x250 DUP5 DUP3 DUP6 PUSH2 0x209 JUMP JUMPDEST POP SWAP4 SWAP3 POP POP POP JUMP JUMPDEST PUSH0 DUP3 PUSH1 0x1F DUP4 ADD SLT PUSH2 0x26C JUMPI PUSH2 0x26B PUSH2 0x11A JUMP JUMPDEST JUMPDEST DUP2 MLOAD PUSH2 0x27C DUP5 DUP3 PUSH1 0x20 DUP7 ADD PUSH2 0x217 JUMP JUMPDEST SWAP2 POP POP SWAP3 SWAP2 POP POP JUMP JUMPDEST PUSH0 PUSH2 0x297 PUSH2 0x292 DUP5 PUSH2 0x1A6 JUMP JUMPDEST PUSH2 0x18C JUMP JUMPDEST SWAP1 POP DUP1 DUP4 DUP3 MSTORE PUSH1 0x20 DUP3 ADD SWAP1 POP PUSH1 0x20 DUP5 MUL DUP4 ADD DUP6 DUP2 GT ISZERO PUSH2 0x2BA JUMPI PUSH2 0x2B9 PUSH2 0x1D1 JUMP JUMPDEST JUMPDEST DUP4 JUMPDEST DUP2 DUP2 LT ISZERO PUSH2 0x301 JUMPI DUP1 MLOAD PUSH8 0xFFFFFFFFFFFFFFFF DUP2 GT ISZERO PUSH2 0x2DF JUMPI PUSH2 0x2DE PUSH2 0x11A JUMP JUMPDEST JUMPDEST DUP1 DUP7 ADD PUSH2 0x2EC DUP10 DUP3 PUSH2 0x258 JUMP JUMPDEST DUP6 MSTORE PUSH1 0x20 DUP6 ADD SWAP5 POP POP POP PUSH1 0x20 DUP2 ADD SWAP1 POP PUSH2 0x2BC JUMP JUMPDEST POP POP POP SWAP4 SWAP3 POP POP POP JUMP JUMPDEST PUSH0 DUP3 PUSH1 0x1F DUP4 ADD SLT PUSH2 0x31F JUMPI PUSH2 0x31E PUSH2 0x11A JUMP JUMPDEST JUMPDEST DUP2 MLOAD PUSH2 0x32F DUP5 DUP3 PUSH1 0x20 DUP7 ADD PUSH2 0x285 JUMP JUMPDEST SWAP2 POP POP SWAP3 SWAP2 POP POP JUMP JUMPDEST PUSH0 PUSH1 0x20 DUP3 DUP5 SUB SLT ISZERO PUSH2 0x34D JUMPI PUSH2 0x34C PUSH2 0x112 JUMP JUMPDEST JUMPDEST PUSH0 DUP3 ADD MLOAD PUSH8 0xFFFFFFFFFFFFFFFF DUP2 GT ISZERO PUSH2 0x36A JUMPI PUSH2 0x369 PUSH2 0x116 JUMP JUMPDEST JUMPDEST PUSH2 0x376 DUP5 DUP3 DUP6 ADD PUSH2 0x30B JUMP JUMPDEST SWAP2 POP POP SWAP3 SWAP2 POP POP JUMP JUMPDEST PUSH32 0x4E487B7100000000000000000000000000000000000000000000000000000000 PUSH0 MSTORE PUSH1 0x32 PUSH1 0x4 MSTORE PUSH1 0x24 PUSH0 REVERT JUMPDEST PUSH0 DUP2 MLOAD SWAP1 POP SWAP2 SWAP1 POP JUMP JUMPDEST PUSH32 0x4E487B7100000000000000000000000000000000000000000000000000000000 PUSH0 MSTORE PUSH1 0x22 PUSH1 0x4 MSTORE PUSH1 0x24 PUSH0 REVERT JUMPDEST PUSH0 PUSH1 0x2 DUP3 DIV SWAP1 POP PUSH1 0x1 DUP3 AND DUP1 PUSH2 0x3FA JUMPI PUSH1 0x7F DUP3 AND SWAP2 POP JUMPDEST PUSH1 0x20 DUP3 LT DUP2 SUB PUSH2 0x40D JUMPI PUSH2 0x40C PUSH2 0x3B6 JUMP JUMPDEST JUMPDEST POP SWAP2 SWAP1 POP JUMP JUMPDEST PUSH0 DUP2 SWAP1 POP DUP2 PUSH0 MSTORE PUSH1 0x20 PUSH0 KECCAK256 SWAP1 POP SWAP2 SWAP1 POP JUMP JUMPDEST PUSH0 PUSH1 0x20 PUSH1 0x1F DUP4 ADD DIV SWAP1 POP SWAP2 SWAP1 POP JUMP JUMPDEST PUSH0 DUP3 DUP3 SHL SWAP1 POP SWAP3 SWAP2 POP POP JUMP JUMPDEST PUSH0 PUSH1 0x8 DUP4 MUL PUSH2 0x46F PUSH32 0xFFFFFFFFFFFFFFFFFFFFFFFFFFFFFFFFFFFFFFFFFFFFFFFFFFFFFFFFFFFFFFFF DUP3 PUSH2 0x434 JUMP JUMPDEST PUSH2 0x479 DUP7 DUP4 PUSH2 0x434 JUMP JUMPDEST SWAP6 POP DUP1 NOT DUP5 AND SWAP4 POP DUP1 DUP7 AND DUP5 OR SWAP3 POP POP POP SWAP4 SWAP3 POP POP POP JUMP JUMPDEST PUSH0 DUP2 SWAP1 POP SWAP2 SWAP1 POP JUMP JUMPDEST PUSH0 DUP2 SWAP1 POP SWAP2 SWAP1 POP JUMP JUMPDEST PUSH0 PUSH2 0x4BD PUSH2 0x4B8 PUSH2 0x4B3 DUP5 PUSH2 0x491 JUMP JUMPDEST PUSH2 0x49A JUMP JUMPDEST PUSH2 0x491 JUMP JUMPDEST SWAP1 POP SWAP2 SWAP1 POP JUMP JUMPDEST PUSH0 DUP2 SWAP1 POP SWAP2 SWAP1 POP JUMP JUMPDEST PUSH2 0x4D6 DUP4 PUSH2 0x4A3 JUMP JUMPDEST PUSH2 0x4EA PUSH2 0x4E2 DUP3 PUSH2 0x4C4 JUMP JUMPDEST DUP5 DUP5 SLOAD PUSH2 0x440 JUMP JUMPDEST DUP3 SSTORE POP POP POP POP JUMP JUMPDEST PUSH0 PUSH0 SWAP1 POP SWAP1 JUMP JUMPDEST PUSH2 0x501 PUSH2 0x4F2 JUMP JUMPDEST PUSH2 0x50C DUP2 DUP5 DUP5 PUSH2 0x4CD JUMP JUMPDEST POP POP POP JUMP JUMPDEST PUSH0 JUMPDEST DUP3 DUP2 LT ISZERO PUSH2 0x532 JUMPI PUSH2 0x527 PUSH0 DUP3 DUP5 ADD PUSH2 0x4F9 JUMP JUMPDEST PUSH1 0x1 DUP2 ADD SWAP1 POP PUSH2 0x513 JUMP JUMPDEST POP POP POP JUMP JUMPDEST PUSH1 0x1F DUP3 GT ISZERO PUSH2 0x585 JUMPI DUP3 DUP3 GT ISZERO PUSH2 0x584 JUMPI PUSH2 0x551 DUP2 PUSH2 0x413 JUMP JUMPDEST PUSH2 0x55A DUP4 PUSH2 0x425 JUMP JUMPDEST PUSH2 0x563 DUP6 PUSH2 0x425 JUMP JUMPDEST PUSH1 0x20 DUP7 LT ISZERO PUSH2 0x570 JUMPI PUSH0 SWAP1 POP JUMPDEST DUP1 DUP4 ADD PUSH2 0x57F DUP3 DUP5 SUB DUP3 PUSH2 0x511 JUMP JUMPDEST POP POP POP POP JUMPDEST JUMPDEST POP POP POP JUMP JUMPDEST PUSH0 DUP3 DUP3 SHR SWAP1 POP SWAP3 SWAP2 POP POP JUMP JUMPDEST PUSH0 PUSH2 0x5A5 PUSH0 NOT DUP5 PUSH1 0x8 MUL PUSH2 0x58A JUMP JUMPDEST NOT DUP1 DUP4 AND SWAP2 POP POP SWAP3 SWAP2 POP POP JUMP JUMPDEST PUSH0 PUSH2 0x5BD DUP4 DUP4 PUSH2 0x596 JUMP JUMPDEST SWAP2 POP DUP3 PUSH1 0x2 MUL DUP3 OR SWAP1 POP SWAP3 SWAP2 POP POP JUMP JUMPDEST PUSH2 0x5D6 DUP3 PUSH2 0x3AC JUMP JUMPDEST PUSH8 0xFFFFFFFFFFFFFFFF DUP2 GT ISZERO PUSH2 0x5EF JUMPI PUSH2 0x5EE PUSH2 0x12E JUMP JUMPDEST JUMPDEST PUSH2 0x5F9 DUP3 SLOAD PUSH2 0x3E3 JUMP JUMPDEST PUSH2 0x604 DUP3 DUP3 DUP6 PUSH2 0x537 JUMP JUMPDEST PUSH0 PUSH1 0x20 SWAP1 POP PUSH1 0x1F DUP4 GT PUSH1 0x1 DUP2 EQ PUSH2 0x635 JUMPI PUSH0 DUP5 ISZERO PUSH2 0x623 JUMPI DUP3 DUP8 ADD MLOAD SWAP1 POP JUMPDEST PUSH2 0x62D DUP6 DUP3 PUSH2 0x5B2 JUMP JUMPDEST DUP7 SSTORE POP PUSH2 0x694 JUMP JUMPDEST PUSH1 0x1F NOT DUP5 AND PUSH2 0x643 DUP7 PUSH2 0x413 JUMP JUMPDEST PUSH0 JUMPDEST DUP3 DUP2 LT ISZERO PUSH2 0x66A JUMPI DUP5 DUP10 ADD MLOAD DUP3 SSTORE PUSH1 0x1 DUP3 ADD SWAP2 POP PUSH1 0x20 DUP6 ADD SWAP5 POP PUSH1 0x20 DUP2 ADD SWAP1 POP PUSH2 0x645 JUMP JUMPDEST DUP7 DUP4 LT ISZERO PUSH2 0x687 JUMPI DUP5 DUP10 ADD MLOAD PUSH2 0x683 PUSH1 0x1F DUP10 AND DUP3 PUSH2 0x596 JUMP JUMPDEST DUP4 SSTORE POP JUMPDEST PUSH1 0x1 PUSH1 0x2 DUP9 MUL ADD DUP9 SSTORE POP POP POP JUMPDEST POP POP POP POP POP POP JUMP JUMPDEST PUSH2 0xD1D DUP1 PUSH2 0x6A9 PUSH0 CODECOPY PUSH0 RETURN INVALID PUSH1 0x80 PUSH1 0x40 MSTORE CALLVALUE DUP1 ISZERO PUSH2 0xF JUMPI PUSH0 PUSH0 REVERT JUMPDEST POP PUSH1 0x4 CALLDATASIZE LT PUSH2 0x7B JUMPI PUSH0 CALLDATALOAD PUSH1 0xE0 SHR DUP1 PUSH4 0x609FF1BD GT PUSH2 0x59 JUMPI DUP1 PUSH4 0x609FF1BD EQ PUSH2 0xEA JUMPI DUP1 PUSH4 0x9E7B8D61 EQ PUSH2 0x108 JUMPI DUP1 PUSH4 0xA3EC138D EQ PUSH2 0x124 JUMPI DUP1 PUSH4 0xE2BA53F0 EQ PUSH2 0x156 JUMPI PUSH2 0x7B JUMP JUMPDEST DUP1 PUSH4 0x121B93F EQ PUSH2 0x7F JUMPI DUP1 PUSH4 0x13CF08B EQ PUSH2 0x9B JUMPI DUP1 PUSH4 0x2E4176CF EQ PUSH2 0xCC JUMPI JUMPDEST PUSH0 PUSH0 REVERT JUMPDEST PUSH2 0x99 PUSH1 0x4 DUP1 CALLDATASIZE SUB DUP2 ADD SWAP1 PUSH2 0x94 SWAP2 SWAP1 PUSH2 0x7E8 JUMP JUMPDEST PUSH2 0x174 JUMP JUMPDEST STOP JUMPDEST PUSH2 0xB5 PUSH1 0x4 DUP1 CALLDATASIZE SUB DUP2 ADD SWAP1 PUSH2 0xB0 SWAP2 SWAP1 PUSH2 0x7E8 JUMP JUMPDEST PUSH2 0x365 JUMP JUMPDEST PUSH1 0x40 MLOAD PUSH2 0xC3 SWAP3 SWAP2 SWAP1 PUSH2 0x892 JUMP JUMPDEST PUSH1 0x40 MLOAD DUP1 SWAP2 SUB SWAP1 RETURN JUMPDEST PUSH2 0xD4 PUSH2 0x41A JUMP JUMPDEST PUSH1 0x40 MLOAD PUSH2 0xE1 SWAP2 SWAP1 PUSH2 0x8FF JUMP JUMPDEST PUSH1 0x40 MLOAD DUP1 SWAP2 SUB SWAP1 RETURN JUMPDEST PUSH2 0xF2 PUSH2 0x43E JUMP JUMPDEST PUSH1 0x40 MLOAD PUSH2 0xFF SWAP2 SWAP1 PUSH2 0x918 JUMP JUMPDEST PUSH1 0x40 MLOAD DUP1 SWAP2 SUB SWAP1 RETURN JUMPDEST PUSH2 0x122 PUSH1 0x4 DUP1 CALLDATASIZE SUB DUP2 ADD SWAP1 PUSH2 0x11D SWAP2 SWAP1 PUSH2 0x95B JUMP JUMPDEST PUSH2 0x4BC JUMP JUMPDEST STOP JUMPDEST PUSH2 0x13E PUSH1 0x4 DUP1 CALLDATASIZE SUB DUP2 ADD SWAP1 PUSH2 0x139 SWAP2 SWAP1 PUSH2 0x95B JUMP JUMPDEST PUSH2 0x6BC JUMP JUMPDEST PUSH1 0x40 MLOAD PUSH2 0x14D SWAP4 SWAP3 SWAP2 SWAP1 PUSH2 0x9A0 JUMP JUMPDEST PUSH1 0x40 MLOAD DUP1 SWAP2 SUB SWAP1 RETURN JUMPDEST PUSH2 0x15E PUSH2 0x6FA JUMP JUMPDEST PUSH1 0x40 MLOAD PUSH2 0x16B SWAP2 SWAP1 PUSH2 0x9D5 JUMP JUMPDEST PUSH1 0x40 MLOAD DUP1 SWAP2 SUB SWAP1 RETURN JUMPDEST PUSH1 0x1 PUSH0 CALLER PUSH20 0xFFFFFFFFFFFFFFFFFFFFFFFFFFFFFFFFFFFFFFFF AND PUSH20 0xFFFFFFFFFFFFFFFFFFFFFFFFFFFFFFFFFFFFFFFF AND DUP2 MSTORE PUSH1 0x20 ADD SWAP1 DUP2 MSTORE PUSH1 0x20 ADD PUSH0 KECCAK256 PUSH0 ADD PUSH0 SWAP1 SLOAD SWAP1 PUSH2 0x100 EXP SWAP1 DIV PUSH1 0xFF AND PUSH2 0x1FF JUMPI PUSH1 0x40 MLOAD PUSH32 0x8C379A000000000000000000000000000000000000000000000000000000000 DUP2 MSTORE PUSH1 0x4 ADD PUSH2 0x1F6 SWAP1 PUSH2 0xA3F JUMP JUMPDEST PUSH1 0x40 MLOAD DUP1 SWAP2 SUB SWAP1 REVERT JUMPDEST PUSH1 0x1 PUSH0 CALLER PUSH20 0xFFFFFFFFFFFFFFFFFFFFFFFFFFFFFFFFFFFFFFFF AND PUSH20 0xFFFFFFFFFFFFFFFFFFFFFFFFFFFFFFFFFFFFFFFF AND DUP2 MSTORE PUSH1 0x20 ADD SWAP1 DUP2 MSTORE PUSH1 0x20 ADD PUSH0 KECCAK256 PUSH0 ADD PUSH1 0x1 SWAP1 SLOAD SWAP1 PUSH2 0x100 EXP SWAP1 DIV PUSH1 0xFF AND ISZERO PUSH2 0x28C JUMPI PUSH1 0x40 MLOAD PUSH32 0x8C379A000000000000000000000000000000000000000000000000000000000 DUP2 MSTORE PUSH1 0x4 ADD PUSH2 0x283 SWAP1 PUSH2 0xAA7 JUMP JUMPDEST PUSH1 0x40 MLOAD DUP1 SWAP2 SUB SWAP1 REVERT JUMPDEST PUSH1 0x1 DUP1 PUSH0 CALLER PUSH20 0xFFFFFFFFFFFFFFFFFFFFFFFFFFFFFFFFFFFFFFFF AND PUSH20 0xFFFFFFFFFFFFFFFFFFFFFFFFFFFFFFFFFFFFFFFF AND DUP2 MSTORE PUSH1 0x20 ADD SWAP1 DUP2 MSTORE PUSH1 0x20 ADD PUSH0 KECCAK256 PUSH0 ADD PUSH1 0x1 PUSH2 0x100 EXP DUP2 SLOAD DUP2 PUSH1 0xFF MUL NOT AND SWAP1 DUP4 ISZERO ISZERO MUL OR SWAP1 SSTORE POP DUP1 PUSH1 0x1 PUSH0 CALLER PUSH20 0xFFFFFFFFFFFFFFFFFFFFFFFFFFFFFFFFFFFFFFFF AND PUSH20 0xFFFFFFFFFFFFFFFFFFFFFFFFFFFFFFFFFFFFFFFF AND DUP2 MSTORE PUSH1 0x20 ADD SWAP1 DUP2 MSTORE PUSH1 0x20 ADD PUSH0 KECCAK256 PUSH1 0x1 ADD DUP2 SWAP1 SSTORE POP PUSH1 0x1 PUSH1 0x2 DUP3 DUP2 SLOAD DUP2 LT PUSH2 0x33E JUMPI PUSH2 0x33D PUSH2 0xAC5 JUMP JUMPDEST JUMPDEST SWAP1 PUSH0 MSTORE PUSH1 0x20 PUSH0 KECCAK256 SWAP1 PUSH1 0x2 MUL ADD PUSH1 0x1 ADD PUSH0 DUP3 DUP3 SLOAD PUSH2 0x35B SWAP2 SWAP1 PUSH2 0xB1F JUMP JUMPDEST SWAP3 POP POP DUP2 SWAP1 SSTORE POP POP JUMP JUMPDEST PUSH1 0x2 DUP2 DUP2 SLOAD DUP2 LT PUSH2 0x374 JUMPI PUSH0 DUP1 REVERT JUMPDEST SWAP1 PUSH0 MSTORE PUSH1 0x20 PUSH0 KECCAK256 SWAP1 PUSH1 0x2 MUL ADD PUSH0 SWAP2 POP SWAP1 POP DUP1 PUSH0 ADD DUP1 SLOAD PUSH2 0x393 SWAP1 PUSH2 0xB7F JUMP JUMPDEST DUP1 PUSH1 0x1F ADD PUSH1 0x20 DUP1 SWAP2 DIV MUL PUSH1 0x20 ADD PUSH1 0x40 MLOAD SWAP1 DUP2 ADD PUSH1 0x40 MSTORE DUP1 SWAP3 SWAP2 SWAP1 DUP2 DUP2 MSTORE PUSH1 0x20 ADD DUP3 DUP1 SLOAD PUSH2 0x3BF SWAP1 PUSH2 0xB7F JUMP JUMPDEST DUP1 ISZERO PUSH2 0x40A JUMPI DUP1 PUSH1 0x1F LT PUSH2 0x3E1 JUMPI PUSH2 0x100 DUP1 DUP4 SLOAD DIV MUL DUP4 MSTORE SWAP2 PUSH1 0x20 ADD SWAP2 PUSH2 0x40A JUMP JUMPDEST DUP3 ADD SWAP2 SWAP1 PUSH0 MSTORE PUSH1 0x20 PUSH0 KECCAK256 SWAP1 JUMPDEST DUP2 SLOAD DUP2 MSTORE SWAP1 PUSH1 0x1 ADD SWAP1 PUSH1 0x20 ADD DUP1 DUP4 GT PUSH2 0x3ED JUMPI DUP3 SWAP1 SUB PUSH1 0x1F AND DUP3 ADD SWAP2 JUMPDEST POP POP POP POP POP SWAP1 DUP1 PUSH1 0x1 ADD SLOAD SWAP1 POP DUP3 JUMP JUMPDEST PUSH0 PUSH0 SWAP1 SLOAD SWAP1 PUSH2 0x100 EXP SWAP1 DIV PUSH20 0xFFFFFFFFFFFFFFFFFFFFFFFFFFFFFFFFFFFFFFFF AND DUP2 JUMP JUMPDEST PUSH0 PUSH0 PUSH0 SWAP1 POP PUSH0 PUSH0 SWAP1 POP JUMPDEST PUSH1 0x2 DUP1 SLOAD SWAP1 POP DUP2 LT ISZERO PUSH2 0x4B7 JUMPI DUP2 PUSH1 0x2 DUP3 DUP2 SLOAD DUP2 LT PUSH2 0x46A JUMPI PUSH2 0x469 PUSH2 0xAC5 JUMP JUMPDEST JUMPDEST SWAP1 PUSH0 MSTORE PUSH1 0x20 PUSH0 KECCAK256 SWAP1 PUSH1 0x2 MUL ADD PUSH1 0x1 ADD SLOAD GT ISZERO PUSH2 0x4AA JUMPI PUSH1 0x2 DUP2 DUP2 SLOAD DUP2 LT PUSH2 0x494 JUMPI PUSH2 0x493 PUSH2 0xAC5 JUMP JUMPDEST JUMPDEST SWAP1 PUSH0 MSTORE PUSH1 0x20 PUSH0 KECCAK256 SWAP1 PUSH1 0x2 MUL ADD PUSH1 0x1 ADD SLOAD SWAP2 POP DUP1 SWAP3 POP JUMPDEST DUP1 DUP1 PUSH1 0x1 ADD SWAP2 POP POP PUSH2 0x448 JUMP JUMPDEST POP POP SWAP1 JUMP JUMPDEST PUSH0 PUSH0 SWAP1 SLOAD SWAP1 PUSH2 0x100 EXP SWAP1 DIV PUSH20 0xFFFFFFFFFFFFFFFFFFFFFFFFFFFFFFFFFFFFFFFF AND PUSH20 0xFFFFFFFFFFFFFFFFFFFFFFFFFFFFFFFFFFFFFFFF AND CALLER PUSH20 0xFFFFFFFFFFFFFFFFFFFFFFFFFFFFFFFFFFFFFFFF AND EQ PUSH2 0x54A JUMPI PUSH1 0x40 MLOAD PUSH32 0x8C379A000000000000000000000000000000000000000000000000000000000 DUP2 MSTORE PUSH1 0x4 ADD PUSH2 0x541 SWAP1 PUSH2 0xBF9 JUMP JUMPDEST PUSH1 0x40 MLOAD DUP1 SWAP2 SUB SWAP1 REVERT JUMPDEST PUSH1 0x1 PUSH0 DUP3 PUSH20 0xFFFFFFFFFFFFFFFFFFFFFFFFFFFFFFFFFFFFFFFF AND PUSH20 0xFFFFFFFFFFFFFFFFFFFFFFFFFFFFFFFFFFFFFFFF AND DUP2 MSTORE PUSH1 0x20 ADD SWAP1 DUP2 MSTORE PUSH1 0x20 ADD PUSH0 KECCAK256 PUSH0 ADD PUSH1 0x1 SWAP1 SLOAD SWAP1 PUSH2 0x100 EXP SWAP1 DIV PUSH1 0xFF AND ISZERO PUSH2 0x5D7 JUMPI PUSH1 0x40 MLOAD PUSH32 0x8C379A000000000000000000000000000000000000000000000000000000000 DUP2 MSTORE PUSH1 0x4 ADD PUSH2 0x5CE SWAP1 PUSH2 0xC61 JUMP JUMPDEST PUSH1 0x40 MLOAD DUP1 SWAP2 SUB SWAP1 REVERT JUMPDEST PUSH1 0x1 PUSH0 DUP3 PUSH20 0xFFFFFFFFFFFFFFFFFFFFFFFFFFFFFFFFFFFFFFFF AND PUSH20 0xFFFFFFFFFFFFFFFFFFFFFFFFFFFFFFFFFFFFFFFF AND DUP2 MSTORE PUSH1 0x20 ADD SWAP1 DUP2 MSTORE PUSH1 0x20 ADD PUSH0 KECCAK256 PUSH0 ADD PUSH0 SWAP1 SLOAD SWAP1 PUSH2 0x100 EXP SWAP1 DIV PUSH1 0xFF AND ISZERO PUSH2 0x663 JUMPI PUSH1 0x40 MLOAD PUSH32 0x8C379A000000000000000000000000000000000000000000000000000000000 DUP2 MSTORE PUSH1 0x4 ADD PUSH2 0x65A SWAP1 PUSH2 0xCC9 JUMP JUMPDEST PUSH1 0x40 MLOAD DUP1 SWAP2 SUB SWAP1 REVERT JUMPDEST PUSH1 0x1 DUP1 PUSH0 DUP4 PUSH20 0xFFFFFFFFFFFFFFFFFFFFFFFFFFFFFFFFFFFFFFFF AND PUSH20 0xFFFFFFFFFFFFFFFFFFFFFFFFFFFFFFFFFFFFFFFF AND DUP2 MSTORE PUSH1 0x20 ADD SWAP1 DUP2 MSTORE PUSH1 0x20 ADD PUSH0 KECCAK256 PUSH0 ADD PUSH0 PUSH2 0x100 EXP DUP2 SLOAD DUP2 PUSH1 0xFF MUL NOT AND SWAP1 DUP4 ISZERO ISZERO MUL OR SWAP1 SSTORE POP POP JUMP JUMPDEST PUSH1 0x1 PUSH1 0x20 MSTORE DUP1 PUSH0 MSTORE PUSH1 0x40 PUSH0 KECCAK256 PUSH0 SWAP2 POP SWAP1 POP DUP1 PUSH0 ADD PUSH0 SWAP1 SLOAD SWAP1 PUSH2 0x100 EXP SWAP1 DIV PUSH1 0xFF AND SWAP1 DUP1 PUSH0 ADD PUSH1 0x1 SWAP1 SLOAD SWAP1 PUSH2 0x100 EXP SWAP1 DIV PUSH1 0xFF AND SWAP1 DUP1 PUSH1 0x1 ADD SLOAD SWAP1 POP DUP4 JUMP JUMPDEST PUSH1 0x60 PUSH1 0x2 PUSH2 0x706 PUSH2 0x43E JUMP JUMPDEST DUP2 SLOAD DUP2 LT PUSH2 0x717 JUMPI PUSH2 0x716 PUSH2 0xAC5 JUMP JUMPDEST JUMPDEST SWAP1 PUSH0 MSTORE PUSH1 0x20 PUSH0 KECCAK256 SWAP1 PUSH1 0x2 MUL ADD PUSH0 ADD DUP1 SLOAD PUSH2 0x730 SWAP1 PUSH2 0xB7F JUMP JUMPDEST DUP1 PUSH1 0x1F ADD PUSH1 0x20 DUP1 SWAP2 DIV MUL PUSH1 0x20 ADD PUSH1 0x40 MLOAD SWAP1 DUP2 ADD PUSH1 0x40 MSTORE DUP1 SWAP3 SWAP2 SWAP1 DUP2 DUP2 MSTORE PUSH1 0x20 ADD DUP3 DUP1 SLOAD PUSH2 0x75C SWAP1 PUSH2 0xB7F JUMP JUMPDEST DUP1 ISZERO PUSH2 0x7A7 JUMPI DUP1 PUSH1 0x1F LT PUSH2 0x77E JUMPI PUSH2 0x100 DUP1 DUP4 SLOAD DIV MUL DUP4 MSTORE SWAP2 PUSH1 0x20 ADD SWAP2 PUSH2 0x7A7 JUMP JUMPDEST DUP3 ADD SWAP2 SWAP1 PUSH0 MSTORE PUSH1 0x20 PUSH0 KECCAK256 SWAP1 JUMPDEST DUP2 SLOAD DUP2 MSTORE SWAP1 PUSH1 0x1 ADD SWAP1 PUSH1 0x20 ADD DUP1 DUP4 GT PUSH2 0x78A JUMPI DUP3 SWAP1 SUB PUSH1 0x1F AND DUP3 ADD SWAP2 JUMPDEST POP POP POP POP POP SWAP1 POP SWAP1 JUMP JUMPDEST PUSH0 PUSH0 REVERT JUMPDEST PUSH0 DUP2 SWAP1 POP SWAP2 SWAP1 POP JUMP JUMPDEST PUSH2 0x7C7 DUP2 PUSH2 0x7B5 JUMP JUMPDEST DUP2 EQ PUSH2 0x7D1 JUMPI PUSH0 PUSH0 REVERT JUMPDEST POP JUMP JUMPDEST PUSH0 DUP2 CALLDATALOAD SWAP1 POP PUSH2 0x7E2 DUP2 PUSH2 0x7BE JUMP JUMPDEST SWAP3 SWAP2 POP POP JUMP JUMPDEST PUSH0 PUSH1 0x20 DUP3 DUP5 SUB SLT ISZERO PUSH2 0x7FD JUMPI PUSH2 0x7FC PUSH2 0x7B1 JUMP JUMPDEST JUMPDEST PUSH0 PUSH2 0x80A DUP5 DUP3 DUP6 ADD PUSH2 0x7D4 JUMP JUMPDEST SWAP2 POP POP SWAP3 SWAP2 POP POP JUMP JUMPDEST PUSH0 DUP2 MLOAD SWAP1 POP SWAP2 SWAP1 POP JUMP JUMPDEST PUSH0 DUP3 DUP3 MSTORE PUSH1 0x20 DUP3 ADD SWAP1 POP SWAP3 SWAP2 POP POP JUMP JUMPDEST DUP3 DUP2 DUP4 MCOPY PUSH0 DUP4 DUP4 ADD MSTORE POP POP POP JUMP JUMPDEST PUSH0 PUSH1 0x1F NOT PUSH1 0x1F DUP4 ADD AND SWAP1 POP SWAP2 SWAP1 POP JUMP JUMPDEST PUSH0 PUSH2 0x855 DUP3 PUSH2 0x813 JUMP JUMPDEST PUSH2 0x85F DUP2 DUP6 PUSH2 0x81D JUMP JUMPDEST SWAP4 POP PUSH2 0x86F DUP2 DUP6 PUSH1 0x20 DUP7 ADD PUSH2 0x82D JUMP JUMPDEST PUSH2 0x878 DUP2 PUSH2 0x83B JUMP JUMPDEST DUP5 ADD SWAP2 POP POP SWAP3 SWAP2 POP POP JUMP JUMPDEST PUSH2 0x88C DUP2 PUSH2 0x7B5 JUMP JUMPDEST DUP3 MSTORE POP POP JUMP JUMPDEST PUSH0 PUSH1 0x40 DUP3 ADD SWAP1 POP DUP2 DUP2 SUB PUSH0 DUP4 ADD MSTORE PUSH2 0x8AA DUP2 DUP6 PUSH2 0x84B JUMP JUMPDEST SWAP1 POP PUSH2 0x8B9 PUSH1 0x20 DUP4 ADD DUP5 PUSH2 0x883 JUMP JUMPDEST SWAP4 SWAP3 POP POP POP JUMP JUMPDEST PUSH0 PUSH20 0xFFFFFFFFFFFFFFFFFFFFFFFFFFFFFFFFFFFFFFFF DUP3 AND SWAP1 POP SWAP2 SWAP1 POP JUMP JUMPDEST PUSH0 PUSH2 0x8E9 DUP3 PUSH2 0x8C0 JUMP JUMPDEST SWAP1 POP SWAP2 SWAP1 POP JUMP JUMPDEST PUSH2 0x8F9 DUP2 PUSH2 0x8DF JUMP JUMPDEST DUP3 MSTORE POP POP JUMP JUMPDEST PUSH0 PUSH1 0x20 DUP3 ADD SWAP1 POP PUSH2 0x912 PUSH0 DUP4 ADD DUP5 PUSH2 0x8F0 JUMP JUMPDEST SWAP3 SWAP2 POP POP JUMP JUMPDEST PUSH0 PUSH1 0x20 DUP3 ADD SWAP1 POP PUSH2 0x92B PUSH0 DUP4 ADD DUP5 PUSH2 0x883 JUMP JUMPDEST SWAP3 SWAP2 POP POP JUMP JUMPDEST PUSH2 0x93A DUP2 PUSH2 0x8DF JUMP JUMPDEST DUP2 EQ PUSH2 0x944 JUMPI PUSH0 PUSH0 REVERT JUMPDEST POP JUMP JUMPDEST PUSH0 DUP2 CALLDATALOAD SWAP1 POP PUSH2 0x955 DUP2 PUSH2 0x931 JUMP JUMPDEST SWAP3 SWAP2 POP POP JUMP JUMPDEST PUSH0 PUSH1 0x20 DUP3 DUP5 SUB SLT ISZERO PUSH2 0x970 JUMPI PUSH2 0x96F PUSH2 0x7B1 JUMP JUMPDEST JUMPDEST PUSH0 PUSH2 0x97D DUP5 DUP3 DUP6 ADD PUSH2 0x947 JUMP JUMPDEST SWAP2 POP POP SWAP3 SWAP2 POP POP JUMP JUMPDEST PUSH0 DUP2 ISZERO ISZERO SWAP1 POP SWAP2 SWAP1 POP JUMP JUMPDEST PUSH2 0x99A DUP2 PUSH2 0x986 JUMP JUMPDEST DUP3 MSTORE POP POP JUMP JUMPDEST PUSH0 PUSH1 0x60 DUP3 ADD SWAP1 POP PUSH2 0x9B3 PUSH0 DUP4 ADD DUP7 PUSH2 0x991 JUMP JUMPDEST PUSH2 0x9C0 PUSH1 0x20 DUP4 ADD DUP6 PUSH2 0x991 JUMP JUMPDEST PUSH2 0x9CD PUSH1 0x40 DUP4 ADD DUP5 PUSH2 0x883 JUMP JUMPDEST SWAP5 SWAP4 POP POP POP POP JUMP JUMPDEST PUSH0 PUSH1 0x20 DUP3 ADD SWAP1 POP DUP2 DUP2 SUB PUSH0 DUP4 ADD MSTORE PUSH2 0x9ED DUP2 DUP5 PUSH2 0x84B JUMP JUMPDEST SWAP1 POP SWAP3 SWAP2 POP POP JUMP JUMPDEST PUSH32 0x4E6F7420617574686F72697A656420746F20766F74652E000000000000000000 PUSH0 DUP3 ADD MSTORE POP JUMP JUMPDEST PUSH0 PUSH2 0xA29 PUSH1 0x17 DUP4 PUSH2 0x81D JUMP JUMPDEST SWAP2 POP PUSH2 0xA34 DUP3 PUSH2 0x9F5 JUMP JUMPDEST PUSH1 0x20 DUP3 ADD SWAP1 POP SWAP2 SWAP1 POP JUMP JUMPDEST PUSH0 PUSH1 0x20 DUP3 ADD SWAP1 POP DUP2 DUP2 SUB PUSH0 DUP4 ADD MSTORE PUSH2 0xA56 DUP2 PUSH2 0xA1D JUMP JUMPDEST SWAP1 POP SWAP2 SWAP1 POP JUMP JUMPDEST PUSH32 0x596F75206861766520616C726561647920766F74656421000000000000000000 PUSH0 DUP3 ADD MSTORE POP JUMP JUMPDEST PUSH0 PUSH2 0xA91 PUSH1 0x17 DUP4 PUSH2 0x81D JUMP JUMPDEST SWAP2 POP PUSH2 0xA9C DUP3 PUSH2 0xA5D JUMP JUMPDEST PUSH1 0x20 DUP3 ADD SWAP1 POP SWAP2 SWAP1 POP JUMP JUMPDEST PUSH0 PUSH1 0x20 DUP3 ADD SWAP1 POP DUP2 DUP2 SUB PUSH0 DUP4 ADD MSTORE PUSH2 0xABE DUP2 PUSH2 0xA85 JUMP JUMPDEST SWAP1 POP SWAP2 SWAP1 POP JUMP JUMPDEST PUSH32 0x4E487B7100000000000000000000000000000000000000000000000000000000 PUSH0 MSTORE PUSH1 0x32 PUSH1 0x4 MSTORE PUSH1 0x24 PUSH0 REVERT JUMPDEST PUSH32 0x4E487B7100000000000000000000000000000000000000000000000000000000 PUSH0 MSTORE PUSH1 0x11 PUSH1 0x4 MSTORE PUSH1 0x24 PUSH0 REVERT JUMPDEST PUSH0 PUSH2 0xB29 DUP3 PUSH2 0x7B5 JUMP JUMPDEST SWAP2 POP PUSH2 0xB34 DUP4 PUSH2 0x7B5 JUMP JUMPDEST SWAP3 POP DUP3 DUP3 ADD SWAP1 POP DUP1 DUP3 GT ISZERO PUSH2 0xB4C JUMPI PUSH2 0xB4B PUSH2 0xAF2 JUMP JUMPDEST JUMPDEST SWAP3 SWAP2 POP POP JUMP JUMPDEST PUSH32 0x4E487B7100000000000000000000000000000000000000000000000000000000 PUSH0 MSTORE PUSH1 0x22 PUSH1 0x4 MSTORE PUSH1 0x24 PUSH0 REVERT JUMPDEST PUSH0 PUSH1 0x2 DUP3 DIV SWAP1 POP PUSH1 0x1 DUP3 AND DUP1 PUSH2 0xB96 JUMPI PUSH1 0x7F DUP3 AND SWAP2 POP JUMPDEST PUSH1 0x20 DUP3 LT DUP2 SUB PUSH2 0xBA9 JUMPI PUSH2 0xBA8 PUSH2 0xB52 JUMP JUMPDEST JUMPDEST POP SWAP2 SWAP1 POP JUMP JUMPDEST PUSH32 0x4F6E6C79206368616972706572736F6E2063616E20617574686F72697A652E00 PUSH0 DUP3 ADD MSTORE POP JUMP JUMPDEST PUSH0 PUSH2 0xBE3 PUSH1 0x1F DUP4 PUSH2 0x81D JUMP JUMPDEST SWAP2 POP PUSH2 0xBEE DUP3 PUSH2 0xBAF JUMP JUMPDEST PUSH1 0x20 DUP3 ADD SWAP1 POP SWAP2 SWAP1 POP JUMP JUMPDEST PUSH0 PUSH1 0x20 DUP3 ADD SWAP1 POP DUP2 DUP2 SUB PUSH0 DUP4 ADD MSTORE PUSH2 0xC10 DUP2 PUSH2 0xBD7 JUMP JUMPDEST SWAP1 POP SWAP2 SWAP1 POP JUMP JUMPDEST PUSH32 0x416C726561647920766F7465642E000000000000000000000000000000000000 PUSH0 DUP3 ADD MSTORE POP JUMP JUMPDEST PUSH0 PUSH2 0xC4B PUSH1 0xE DUP4 PUSH2 0x81D JUMP JUMPDEST SWAP2 POP PUSH2 0xC56 DUP3 PUSH2 0xC17 JUMP JUMPDEST PUSH1 0x20 DUP3 ADD SWAP1 POP SWAP2 SWAP1 POP JUMP JUMPDEST PUSH0 PUSH1 0x20 DUP3 ADD SWAP1 POP DUP2 DUP2 SUB PUSH0 DUP4 ADD MSTORE PUSH2 0xC78 DUP2 PUSH2 0xC3F JUMP JUMPDEST SWAP1 POP SWAP2 SWAP1 POP JUMP JUMPDEST PUSH32 0x416C726561647920617574686F72697A65642E00000000000000000000000000 PUSH0 DUP3 ADD MSTORE POP JUMP JUMPDEST PUSH0 PUSH2 0xCB3 PUSH1 0x13 DUP4 PUSH2 0x81D JUMP JUMPDEST SWAP2 POP PUSH2 0xCBE DUP3 PUSH2 0xC7F JUMP JUMPDEST PUSH1 0x20 DUP3 ADD SWAP1 POP SWAP2 SWAP1 POP JUMP JUMPDEST PUSH0 PUSH1 0x20 DUP3 ADD SWAP1 POP DUP2 DUP2 SUB PUSH0 DUP4 ADD MSTORE PUSH2 0xCE0 DUP2 PUSH2 0xCA7 JUMP JUMPDEST SWAP1 POP SWAP2 SWAP1 POP JUMP INVALID LOG2 PUSH5 0x6970667358 0x22 SLT KECCAK256 GASLIMIT PUSH32 0xB5F0AFB0385148C93F97FA39EB430DFCD2A0D3792F9F4240F2E2D5307DCB6473 PUSH16 0x6C634300082200330000000000000000 "
				},
				"gasEstimates": {
					"creation": {
						"codeDepositCost": "671400",
						"executionCost": "infinite",
						"totalCost": "infinite"
					},
					"external": {
						"chairperson()": "2552",
						"giveRightToVote(address)": "31545",
						"proposals(uint256)": "infinite",
						"vote(uint256)": "infinite",
						"voters(address)": "infinite",
						"winnerName()": "infinite",
						"winningProposal()": "infinite"
					}
				},
				"methodIdentifiers": {
					"chairperson()": "2e4176cf",
					"giveRightToVote(address)": "9e7b8d61",
					"proposals(uint256)": "013cf08b",
					"vote(uint256)": "0121b93f",
					"voters(address)": "a3ec138d",
					"winnerName()": "e2ba53f0",
					"winningProposal()": "609ff1bd"
				}
			},
			"storageLayout": {
				"storage": [
					{
						"astId": 15,
						"contract": "Voting.sol:Voting",
						"label": "chairperson",
						"offset": 0,
						"slot": "0",
						"type": "t_address"
					},
					{
						"astId": 20,
						"contract": "Voting.sol:Voting",
						"label": "voters",
						"offset": 0,
						"slot": "1",
						"type": "t_mapping(t_address,t_struct(Voter)8_storage)"
					},
					{
						"astId": 24,
						"contract": "Voting.sol:Voting",
						"label": "proposals",
						"offset": 0,
						"slot": "2",
						"type": "t_array(t_struct(Proposal)13_storage)dyn_storage"
					}
				],
				"types": {
					"t_address": {
						"encoding": "inplace",
						"label": "address",
						"numberOfBytes": "20"
					},
					"t_array(t_struct(Proposal)13_storage)dyn_storage": {
						"base": "t_struct(Proposal)13_storage",
						"encoding": "dynamic_array",
						"label": "struct Voting.Proposal[]",
						"numberOfBytes": "32"
					},
					"t_bool": {
						"encoding": "inplace",
						"label": "bool",
						"numberOfBytes": "1"
					},
					"t_mapping(t_address,t_struct(Voter)8_storage)": {
						"encoding": "mapping",
						"key": "t_address",
						"label": "mapping(address => struct Voting.Voter)",
						"numberOfBytes": "32",
						"value": "t_struct(Voter)8_storage"
					},
					"t_string_storage": {
						"encoding": "bytes",
						"label": "string",
						"numberOfBytes": "32"
					},
					"t_struct(Proposal)13_storage": {
						"encoding": "inplace",
						"label": "struct Voting.Proposal",
						"members": [
							{
								"astId": 10,
								"contract": "Voting.sol:Voting",
								"label": "name",
								"offset": 0,
								"slot": "0",
								"type": "t_string_storage"
							},
							{
								"astId": 12,
								"contract": "Voting.sol:Voting",
								"label": "voteCount",
								"offset": 0,
								"slot": "1",
								"type": "t_uint256"
							}
						],
						"numberOfBytes": "64"
					},
					"t_struct(Voter)8_storage": {
						"encoding": "inplace",
						"label": "struct Voting.Voter",
						"members": [
							{
								"astId": 3,
								"contract": "Voting.sol:Voting",
								"label": "authorized",
								"offset": 0,
								"slot": "0",
								"type": "t_bool"
							},
							{
								"astId": 5,
								"contract": "Voting.sol:Voting",
								"label": "voted",
								"offset": 1,
								"slot": "0",
								"type": "t_bool"
							},
							{
								"astId": 7,
								"contract": "Voting.sol:Voting",
								"label": "vote",
								"offset": 0,
								"slot": "1",
								"type": "t_uint256"
							}
						],
						"numberOfBytes": "64"
					},
					"t_uint256": {
						"encoding": "inplace",
						"label": "uint256",
						"numberOfBytes": "32"
					}
				}
			},
			"userdoc": {
				"kind": "user",
				"methods": {},
				"version": 1
			}
		}
	}
}